{
	"contracts/4_Ebbix.sol": {
		"Web3YouTube": {
			"abi": [
				{
					"inputs": [],
					"stateMutability": "nonpayable",
					"type": "constructor"
				},
				{
					"anonymous": false,
					"inputs": [
						{
							"indexed": false,
							"internalType": "uint256",
							"name": "contentId",
							"type": "uint256"
						},
						{
							"indexed": true,
							"internalType": "address",
							"name": "creator",
							"type": "address"
						},
						{
							"indexed": false,
							"internalType": "string",
							"name": "metadata",
							"type": "string"
						}
					],
					"name": "ContentUploaded",
					"type": "event"
				},
				{
					"anonymous": false,
					"inputs": [
						{
							"indexed": true,
							"internalType": "address",
							"name": "creator",
							"type": "address"
						},
						{
							"indexed": false,
							"internalType": "uint256",
							"name": "amount",
							"type": "uint256"
						}
					],
					"name": "RewardDistributed",
					"type": "event"
				},
				{
					"anonymous": false,
					"inputs": [
						{
							"indexed": true,
							"internalType": "address",
							"name": "subscriber",
							"type": "address"
						},
						{
							"indexed": true,
							"internalType": "address",
							"name": "creator",
							"type": "address"
						}
					],
					"name": "Subscribed",
					"type": "event"
				},
				{
					"anonymous": false,
					"inputs": [
						{
							"indexed": true,
							"internalType": "address",
							"name": "user",
							"type": "address"
						}
					],
					"name": "UserRegistered",
					"type": "event"
				},
				{
					"inputs": [],
					"name": "contentCount",
					"outputs": [
						{
							"internalType": "uint256",
							"name": "",
							"type": "uint256"
						}
					],
					"stateMutability": "view",
					"type": "function"
				},
				{
					"inputs": [
						{
							"internalType": "uint256",
							"name": "",
							"type": "uint256"
						}
					],
					"name": "contents",
					"outputs": [
						{
							"internalType": "address",
							"name": "creator",
							"type": "address"
						},
						{
							"internalType": "string",
							"name": "metadata",
							"type": "string"
						},
						{
							"internalType": "bool",
							"name": "uploaded",
							"type": "bool"
						}
					],
					"stateMutability": "view",
					"type": "function"
				},
				{
					"inputs": [],
					"name": "fundContract",
					"outputs": [],
					"stateMutability": "payable",
					"type": "function"
				},
				{
					"inputs": [],
					"name": "getContractBalance",
					"outputs": [
						{
							"internalType": "uint256",
							"name": "",
							"type": "uint256"
						}
					],
					"stateMutability": "view",
					"type": "function"
				},
				{
					"inputs": [],
					"name": "owner",
					"outputs": [
						{
							"internalType": "address",
							"name": "",
							"type": "address"
						}
					],
					"stateMutability": "view",
					"type": "function"
				},
				{
					"inputs": [],
					"name": "registerUser",
					"outputs": [],
					"stateMutability": "nonpayable",
					"type": "function"
				},
				{
					"inputs": [],
					"name": "rewardAmount",
					"outputs": [
						{
							"internalType": "uint256",
							"name": "",
							"type": "uint256"
						}
					],
					"stateMutability": "view",
					"type": "function"
				},
				{
					"inputs": [],
					"name": "rewardThreshold",
					"outputs": [
						{
							"internalType": "uint256",
							"name": "",
							"type": "uint256"
						}
					],
					"stateMutability": "view",
					"type": "function"
				},
				{
					"inputs": [
						{
							"internalType": "address",
							"name": "creator",
							"type": "address"
						}
					],
					"name": "subscribe",
					"outputs": [],
					"stateMutability": "nonpayable",
					"type": "function"
				},
				{
					"inputs": [
						{
							"internalType": "uint256",
							"name": "newAmount",
							"type": "uint256"
						}
					],
					"name": "updateRewardAmount",
					"outputs": [],
					"stateMutability": "nonpayable",
					"type": "function"
				},
				{
					"inputs": [
						{
							"internalType": "uint256",
							"name": "newThreshold",
							"type": "uint256"
						}
					],
					"name": "updateRewardThreshold",
					"outputs": [],
					"stateMutability": "nonpayable",
					"type": "function"
				},
				{
					"inputs": [
						{
							"internalType": "string",
							"name": "metadata",
							"type": "string"
						}
					],
					"name": "uploadContent",
					"outputs": [],
					"stateMutability": "nonpayable",
					"type": "function"
				},
				{
					"inputs": [
						{
							"internalType": "address",
							"name": "",
							"type": "address"
						}
					],
					"name": "users",
					"outputs": [
						{
							"internalType": "address",
							"name": "wallet",
							"type": "address"
						},
						{
							"internalType": "bool",
							"name": "registered",
							"type": "bool"
						},
						{
							"internalType": "uint256",
							"name": "subscribers",
							"type": "uint256"
						}
					],
					"stateMutability": "view",
					"type": "function"
				},
				{
					"inputs": [],
					"name": "withdrawBalance",
					"outputs": [],
					"stateMutability": "nonpayable",
					"type": "function"
				}
			],
			"devdoc": {
				"kind": "dev",
				"methods": {},
				"version": 1
			},
			"evm": {
				"assembly": "    /* \"contracts/4_Ebbix.sol\":60:3154  contract Web3YouTube {... */\n  mstore(0x40, 0x80)\n    /* \"contracts/4_Ebbix.sol\":355:356  0 */\n  0x00\n    /* \"contracts/4_Ebbix.sol\":328:356  uint public contentCount = 0 */\n  0x01\n  sstore\n    /* \"contracts/4_Ebbix.sol\":393:396  100 */\n  0x64\n    /* \"contracts/4_Ebbix.sol\":363:396  uint public rewardThreshold = 100 */\n  0x02\n  sstore\n    /* \"contracts/4_Ebbix.sol\":467:477  0.01 ether */\n  0x2386f26fc10000\n    /* \"contracts/4_Ebbix.sol\":440:477  uint public rewardAmount = 0.01 ether */\n  0x03\n  sstore\n    /* \"contracts/4_Ebbix.sol\":1129:1180  constructor() {... */\n  callvalue\n  dup1\n  iszero\n  tag_1\n  jumpi\n  revert(0x00, 0x00)\ntag_1:\n  pop\n    /* \"contracts/4_Ebbix.sol\":1162:1172  msg.sender */\n  caller\n    /* \"contracts/4_Ebbix.sol\":1154:1159  owner */\n  0x00\n  0x00\n    /* \"contracts/4_Ebbix.sol\":1154:1172  owner = msg.sender */\n  0x0100\n  exp\n  dup2\n  sload\n  dup2\n  0xffffffffffffffffffffffffffffffffffffffff\n  mul\n  not\n  and\n  swap1\n  dup4\n  0xffffffffffffffffffffffffffffffffffffffff\n  and\n  mul\n  or\n  swap1\n  sstore\n  pop\n    /* \"contracts/4_Ebbix.sol\":60:3154  contract Web3YouTube {... */\n  dataSize(sub_0)\n  dup1\n  dataOffset(sub_0)\n  0x00\n  codecopy\n  0x00\n  return\nstop\n\nsub_0: assembly {\n        /* \"contracts/4_Ebbix.sol\":60:3154  contract Web3YouTube {... */\n      mstore(0x40, 0x80)\n      jumpi(tag_1, lt(calldatasize, 0x04))\n      shr(0xe0, calldataload(0x00))\n      dup1\n      0xa87430ba\n      gt\n      tag_16\n      jumpi\n      dup1\n      0xbe74cf5a\n      gt\n      tag_17\n      jumpi\n      dup1\n      0xbe74cf5a\n      eq\n      tag_12\n      jumpi\n      dup1\n      0xcc459696\n      eq\n      tag_13\n      jumpi\n      dup1\n      0xdcda2d8c\n      eq\n      tag_14\n      jumpi\n      dup1\n      0xf7b2a7be\n      eq\n      tag_15\n      jumpi\n      jump(tag_1)\n    tag_17:\n      dup1\n      0xa87430ba\n      eq\n      tag_9\n      jumpi\n      dup1\n      0xb5ecf912\n      eq\n      tag_10\n      jumpi\n      dup1\n      0xbd097e21\n      eq\n      tag_11\n      jumpi\n      jump(tag_1)\n    tag_16:\n      dup1\n      0x5ea4d29c\n      gt\n      tag_18\n      jumpi\n      dup1\n      0x5ea4d29c\n      eq\n      tag_5\n      jumpi\n      dup1\n      0x5fd8c710\n      eq\n      tag_6\n      jumpi\n      dup1\n      0x6f9fb98a\n      eq\n      tag_7\n      jumpi\n      dup1\n      0x8da5cb5b\n      eq\n      tag_8\n      jumpi\n      jump(tag_1)\n    tag_18:\n      dup1\n      0x15c2ba14\n      eq\n      tag_2\n      jumpi\n      dup1\n      0x41a7726a\n      eq\n      tag_3\n      jumpi\n      dup1\n      0x4d3820eb\n      eq\n      tag_4\n      jumpi\n    tag_1:\n      revert(0x00, 0x00)\n        /* \"contracts/4_Ebbix.sol\":2742:2846  function updateRewardAmount(uint newAmount) public onlyOwner {... */\n    tag_2:\n      callvalue\n      dup1\n      iszero\n      tag_19\n      jumpi\n      revert(0x00, 0x00)\n    tag_19:\n      pop\n      tag_20\n      0x04\n      dup1\n      calldatasize\n      sub\n      dup2\n      add\n      swap1\n      tag_21\n      swap2\n      swap1\n      tag_22\n      jump\t// in\n    tag_21:\n      tag_23\n      jump\t// in\n    tag_20:\n      stop\n        /* \"contracts/4_Ebbix.sol\":1751:2144  function subscribe(address creator) public onlyRegistered {... */\n    tag_3:\n      callvalue\n      dup1\n      iszero\n      tag_24\n      jumpi\n      revert(0x00, 0x00)\n    tag_24:\n      pop\n      tag_25\n      0x04\n      dup1\n      calldatasize\n      sub\n      dup2\n      add\n      swap1\n      tag_26\n      swap2\n      swap1\n      tag_27\n      jump\t// in\n    tag_26:\n      tag_28\n      jump\t// in\n    tag_25:\n      stop\n        /* \"contracts/4_Ebbix.sol\":1216:1429  function registerUser() public {... */\n    tag_4:\n      callvalue\n      dup1\n      iszero\n      tag_29\n      jumpi\n      revert(0x00, 0x00)\n    tag_29:\n      pop\n      tag_30\n      tag_31\n      jump\t// in\n    tag_30:\n      stop\n        /* \"contracts/4_Ebbix.sol\":363:396  uint public rewardThreshold = 100 */\n    tag_5:\n      callvalue\n      dup1\n      iszero\n      tag_32\n      jumpi\n      revert(0x00, 0x00)\n    tag_32:\n      pop\n      tag_33\n      tag_34\n      jump\t// in\n    tag_33:\n      mload(0x40)\n      tag_35\n      swap2\n      swap1\n      tag_36\n      jump\t// in\n    tag_35:\n      mload(0x40)\n      dup1\n      swap2\n      sub\n      swap1\n      return\n        /* \"contracts/4_Ebbix.sol\":2901:3010  function withdrawBalance() public onlyOwner {... */\n    tag_6:\n      callvalue\n      dup1\n      iszero\n      tag_37\n      jumpi\n      revert(0x00, 0x00)\n    tag_37:\n      pop\n      tag_38\n      tag_39\n      jump\t// in\n    tag_38:\n      stop\n        /* \"contracts/4_Ebbix.sol\":3047:3151  function getContractBalance() public view returns (uint) {... */\n    tag_7:\n      callvalue\n      dup1\n      iszero\n      tag_40\n      jumpi\n      revert(0x00, 0x00)\n    tag_40:\n      pop\n      tag_41\n      tag_42\n      jump\t// in\n    tag_41:\n      mload(0x40)\n      tag_43\n      swap2\n      swap1\n      tag_36\n      jump\t// in\n    tag_43:\n      mload(0x40)\n      dup1\n      swap2\n      sub\n      swap1\n      return\n        /* \"contracts/4_Ebbix.sol\":301:321  address public owner */\n    tag_8:\n      callvalue\n      dup1\n      iszero\n      tag_44\n      jumpi\n      revert(0x00, 0x00)\n    tag_44:\n      pop\n      tag_45\n      tag_46\n      jump\t// in\n    tag_45:\n      mload(0x40)\n      tag_47\n      swap2\n      swap1\n      tag_48\n      jump\t// in\n    tag_47:\n      mload(0x40)\n      dup1\n      swap2\n      sub\n      swap1\n      return\n        /* \"contracts/4_Ebbix.sol\":511:548  mapping(address => User) public users */\n    tag_9:\n      callvalue\n      dup1\n      iszero\n      tag_49\n      jumpi\n      revert(0x00, 0x00)\n    tag_49:\n      pop\n      tag_50\n      0x04\n      dup1\n      calldatasize\n      sub\n      dup2\n      add\n      swap1\n      tag_51\n      swap2\n      swap1\n      tag_27\n      jump\t// in\n    tag_51:\n      tag_52\n      jump\t// in\n    tag_50:\n      mload(0x40)\n      tag_53\n      swap4\n      swap3\n      swap2\n      swap1\n      tag_54\n      jump\t// in\n    tag_53:\n      mload(0x40)\n      dup1\n      swap2\n      sub\n      swap1\n      return\n        /* \"contracts/4_Ebbix.sol\":555:595  mapping(uint => Content) public contents */\n    tag_10:\n      callvalue\n      dup1\n      iszero\n      tag_55\n      jumpi\n      revert(0x00, 0x00)\n    tag_55:\n      pop\n      tag_56\n      0x04\n      dup1\n      calldatasize\n      sub\n      dup2\n      add\n      swap1\n      tag_57\n      swap2\n      swap1\n      tag_22\n      jump\t// in\n    tag_57:\n      tag_58\n      jump\t// in\n    tag_56:\n      mload(0x40)\n      tag_59\n      swap4\n      swap3\n      swap2\n      swap1\n      tag_60\n      jump\t// in\n    tag_59:\n      mload(0x40)\n      dup1\n      swap2\n      sub\n      swap1\n      return\n        /* \"contracts/4_Ebbix.sol\":2498:2549  function fundContract() public payable onlyOwner {} */\n    tag_11:\n      tag_61\n      tag_62\n      jump\t// in\n    tag_61:\n      stop\n        /* \"contracts/4_Ebbix.sol\":1460:1704  function uploadContent(string memory metadata) public onlyRegistered {... */\n    tag_12:\n      callvalue\n      dup1\n      iszero\n      tag_63\n      jumpi\n      revert(0x00, 0x00)\n    tag_63:\n      pop\n      tag_64\n      0x04\n      dup1\n      calldatasize\n      sub\n      dup2\n      add\n      swap1\n      tag_65\n      swap2\n      swap1\n      tag_66\n      jump\t// in\n    tag_65:\n      tag_67\n      jump\t// in\n    tag_64:\n      stop\n        /* \"contracts/4_Ebbix.sol\":328:356  uint public contentCount = 0 */\n    tag_13:\n      callvalue\n      dup1\n      iszero\n      tag_68\n      jumpi\n      revert(0x00, 0x00)\n    tag_68:\n      pop\n      tag_69\n      tag_70\n      jump\t// in\n    tag_69:\n      mload(0x40)\n      tag_71\n      swap2\n      swap1\n      tag_36\n      jump\t// in\n    tag_71:\n      mload(0x40)\n      dup1\n      swap2\n      sub\n      swap1\n      return\n        /* \"contracts/4_Ebbix.sol\":2589:2705  function updateRewardThreshold(uint newThreshold) public onlyOwner {... */\n    tag_14:\n      callvalue\n      dup1\n      iszero\n      tag_72\n      jumpi\n      revert(0x00, 0x00)\n    tag_72:\n      pop\n      tag_73\n      0x04\n      dup1\n      calldatasize\n      sub\n      dup2\n      add\n      swap1\n      tag_74\n      swap2\n      swap1\n      tag_22\n      jump\t// in\n    tag_74:\n      tag_75\n      jump\t// in\n    tag_73:\n      stop\n        /* \"contracts/4_Ebbix.sol\":440:477  uint public rewardAmount = 0.01 ether */\n    tag_15:\n      callvalue\n      dup1\n      iszero\n      tag_76\n      jumpi\n      revert(0x00, 0x00)\n    tag_76:\n      pop\n      tag_77\n      tag_78\n      jump\t// in\n    tag_77:\n      mload(0x40)\n      tag_79\n      swap2\n      swap1\n      tag_36\n      jump\t// in\n    tag_79:\n      mload(0x40)\n      dup1\n      swap2\n      sub\n      swap1\n      return\n        /* \"contracts/4_Ebbix.sol\":2742:2846  function updateRewardAmount(uint newAmount) public onlyOwner {... */\n    tag_23:\n        /* \"contracts/4_Ebbix.sol\":939:944  owner */\n      0x00\n      0x00\n      swap1\n      sload\n      swap1\n      0x0100\n      exp\n      swap1\n      div\n      0xffffffffffffffffffffffffffffffffffffffff\n      and\n        /* \"contracts/4_Ebbix.sol\":925:944  msg.sender == owner */\n      0xffffffffffffffffffffffffffffffffffffffff\n      and\n        /* \"contracts/4_Ebbix.sol\":925:935  msg.sender */\n      caller\n        /* \"contracts/4_Ebbix.sol\":925:944  msg.sender == owner */\n      0xffffffffffffffffffffffffffffffffffffffff\n      and\n      eq\n        /* \"contracts/4_Ebbix.sol\":917:976  require(msg.sender == owner, \"Only owner can execute this\") */\n      tag_81\n      jumpi\n      mload(0x40)\n      0x08c379a000000000000000000000000000000000000000000000000000000000\n      dup2\n      mstore\n      0x04\n      add\n      tag_82\n      swap1\n      tag_83\n      jump\t// in\n    tag_82:\n      mload(0x40)\n      dup1\n      swap2\n      sub\n      swap1\n      revert\n    tag_81:\n        /* \"contracts/4_Ebbix.sol\":2829:2838  newAmount */\n      dup1\n        /* \"contracts/4_Ebbix.sol\":2814:2826  rewardAmount */\n      0x03\n        /* \"contracts/4_Ebbix.sol\":2814:2838  rewardAmount = newAmount */\n      dup2\n      swap1\n      sstore\n      pop\n        /* \"contracts/4_Ebbix.sol\":2742:2846  function updateRewardAmount(uint newAmount) public onlyOwner {... */\n      pop\n      jump\t// out\n        /* \"contracts/4_Ebbix.sol\":1751:2144  function subscribe(address creator) public onlyRegistered {... */\n    tag_28:\n        /* \"contracts/4_Ebbix.sol\":1049:1054  users */\n      0x04\n        /* \"contracts/4_Ebbix.sol\":1049:1066  users[msg.sender] */\n      0x00\n        /* \"contracts/4_Ebbix.sol\":1055:1065  msg.sender */\n      caller\n        /* \"contracts/4_Ebbix.sol\":1049:1066  users[msg.sender] */\n      0xffffffffffffffffffffffffffffffffffffffff\n      and\n      0xffffffffffffffffffffffffffffffffffffffff\n      and\n      dup2\n      mstore\n      0x20\n      add\n      swap1\n      dup2\n      mstore\n      0x20\n      add\n      0x00\n      keccak256\n        /* \"contracts/4_Ebbix.sol\":1049:1077  users[msg.sender].registered */\n      0x00\n      add\n      0x14\n      swap1\n      sload\n      swap1\n      0x0100\n      exp\n      swap1\n      div\n      0xff\n      and\n        /* \"contracts/4_Ebbix.sol\":1041:1101  require(users[msg.sender].registered, \"User not registered\") */\n      tag_86\n      jumpi\n      mload(0x40)\n      0x08c379a000000000000000000000000000000000000000000000000000000000\n      dup2\n      mstore\n      0x04\n      add\n      tag_87\n      swap1\n      tag_88\n      jump\t// in\n    tag_87:\n      mload(0x40)\n      dup1\n      swap2\n      sub\n      swap1\n      revert\n    tag_86:\n        /* \"contracts/4_Ebbix.sol\":1828:1833  users */\n      0x04\n        /* \"contracts/4_Ebbix.sol\":1828:1842  users[creator] */\n      0x00\n        /* \"contracts/4_Ebbix.sol\":1834:1841  creator */\n      dup3\n        /* \"contracts/4_Ebbix.sol\":1828:1842  users[creator] */\n      0xffffffffffffffffffffffffffffffffffffffff\n      and\n      0xffffffffffffffffffffffffffffffffffffffff\n      and\n      dup2\n      mstore\n      0x20\n      add\n      swap1\n      dup2\n      mstore\n      0x20\n      add\n      0x00\n      keccak256\n        /* \"contracts/4_Ebbix.sol\":1828:1853  users[creator].registered */\n      0x00\n      add\n      0x14\n      swap1\n      sload\n      swap1\n      0x0100\n      exp\n      swap1\n      div\n      0xff\n      and\n        /* \"contracts/4_Ebbix.sol\":1820:1880  require(users[creator].registered, \"Creator not registered\") */\n      tag_90\n      jumpi\n      mload(0x40)\n      0x08c379a000000000000000000000000000000000000000000000000000000000\n      dup2\n      mstore\n      0x04\n      add\n      tag_91\n      swap1\n      tag_92\n      jump\t// in\n    tag_91:\n      mload(0x40)\n      dup1\n      swap2\n      sub\n      swap1\n      revert\n    tag_90:\n        /* \"contracts/4_Ebbix.sol\":1891:1896  users */\n      0x04\n        /* \"contracts/4_Ebbix.sol\":1891:1905  users[creator] */\n      0x00\n        /* \"contracts/4_Ebbix.sol\":1897:1904  creator */\n      dup3\n        /* \"contracts/4_Ebbix.sol\":1891:1905  users[creator] */\n      0xffffffffffffffffffffffffffffffffffffffff\n      and\n      0xffffffffffffffffffffffffffffffffffffffff\n      and\n      dup2\n      mstore\n      0x20\n      add\n      swap1\n      dup2\n      mstore\n      0x20\n      add\n      0x00\n      keccak256\n        /* \"contracts/4_Ebbix.sol\":1891:1917  users[creator].subscribers */\n      0x01\n      add\n      0x00\n        /* \"contracts/4_Ebbix.sol\":1891:1919  users[creator].subscribers++ */\n      dup2\n      sload\n      dup1\n      swap3\n      swap2\n      swap1\n      tag_93\n      swap1\n      tag_94\n      jump\t// in\n    tag_93:\n      swap2\n      swap1\n      pop\n      sstore\n      pop\n        /* \"contracts/4_Ebbix.sol\":1958:1965  creator */\n      dup1\n        /* \"contracts/4_Ebbix.sol\":1935:1966  Subscribed(msg.sender, creator) */\n      0xffffffffffffffffffffffffffffffffffffffff\n      and\n        /* \"contracts/4_Ebbix.sol\":1946:1956  msg.sender */\n      caller\n        /* \"contracts/4_Ebbix.sol\":1935:1966  Subscribed(msg.sender, creator) */\n      0xffffffffffffffffffffffffffffffffffffffff\n      and\n      0x5af76814d21ef4a656d75bdbdb9cc3efa85af5efca9dbca0397824217d9344b7\n      mload(0x40)\n      mload(0x40)\n      dup1\n      swap2\n      sub\n      swap1\n      log3\n        /* \"contracts/4_Ebbix.sol\":2068:2083  rewardThreshold */\n      sload(0x02)\n        /* \"contracts/4_Ebbix.sol\":2038:2043  users */\n      0x04\n        /* \"contracts/4_Ebbix.sol\":2038:2052  users[creator] */\n      0x00\n        /* \"contracts/4_Ebbix.sol\":2044:2051  creator */\n      dup4\n        /* \"contracts/4_Ebbix.sol\":2038:2052  users[creator] */\n      0xffffffffffffffffffffffffffffffffffffffff\n      and\n      0xffffffffffffffffffffffffffffffffffffffff\n      and\n      dup2\n      mstore\n      0x20\n      add\n      swap1\n      dup2\n      mstore\n      0x20\n      add\n      0x00\n      keccak256\n        /* \"contracts/4_Ebbix.sol\":2038:2064  users[creator].subscribers */\n      0x01\n      add\n      sload\n        /* \"contracts/4_Ebbix.sol\":2038:2083  users[creator].subscribers == rewardThreshold */\n      sub\n        /* \"contracts/4_Ebbix.sol\":2034:2137  if (users[creator].subscribers == rewardThreshold) {... */\n      tag_95\n      jumpi\n        /* \"contracts/4_Ebbix.sol\":2100:2125  distributeReward(creator) */\n      tag_96\n        /* \"contracts/4_Ebbix.sol\":2117:2124  creator */\n      dup2\n        /* \"contracts/4_Ebbix.sol\":2100:2116  distributeReward */\n      tag_97\n        /* \"contracts/4_Ebbix.sol\":2100:2125  distributeReward(creator) */\n      jump\t// in\n    tag_96:\n        /* \"contracts/4_Ebbix.sol\":2034:2137  if (users[creator].subscribers == rewardThreshold) {... */\n    tag_95:\n        /* \"contracts/4_Ebbix.sol\":1751:2144  function subscribe(address creator) public onlyRegistered {... */\n      pop\n      jump\t// out\n        /* \"contracts/4_Ebbix.sol\":1216:1429  function registerUser() public {... */\n    tag_31:\n        /* \"contracts/4_Ebbix.sol\":1267:1272  users */\n      0x04\n        /* \"contracts/4_Ebbix.sol\":1267:1284  users[msg.sender] */\n      0x00\n        /* \"contracts/4_Ebbix.sol\":1273:1283  msg.sender */\n      caller\n        /* \"contracts/4_Ebbix.sol\":1267:1284  users[msg.sender] */\n      0xffffffffffffffffffffffffffffffffffffffff\n      and\n      0xffffffffffffffffffffffffffffffffffffffff\n      and\n      dup2\n      mstore\n      0x20\n      add\n      swap1\n      dup2\n      mstore\n      0x20\n      add\n      0x00\n      keccak256\n        /* \"contracts/4_Ebbix.sol\":1267:1295  users[msg.sender].registered */\n      0x00\n      add\n      0x14\n      swap1\n      sload\n      swap1\n      0x0100\n      exp\n      swap1\n      div\n      0xff\n      and\n        /* \"contracts/4_Ebbix.sol\":1266:1295  !users[msg.sender].registered */\n      iszero\n        /* \"contracts/4_Ebbix.sol\":1258:1323  require(!users[msg.sender].registered, \"User already registered\") */\n      tag_99\n      jumpi\n      mload(0x40)\n      0x08c379a000000000000000000000000000000000000000000000000000000000\n      dup2\n      mstore\n      0x04\n      add\n      tag_100\n      swap1\n      tag_101\n      jump\t// in\n    tag_100:\n      mload(0x40)\n      dup1\n      swap2\n      sub\n      swap1\n      revert\n    tag_99:\n        /* \"contracts/4_Ebbix.sol\":1354:1379  User(msg.sender, true, 0) */\n      mload(0x40)\n      dup1\n      0x60\n      add\n      0x40\n      mstore\n      dup1\n        /* \"contracts/4_Ebbix.sol\":1359:1369  msg.sender */\n      caller\n        /* \"contracts/4_Ebbix.sol\":1354:1379  User(msg.sender, true, 0) */\n      0xffffffffffffffffffffffffffffffffffffffff\n      and\n      dup2\n      mstore\n      0x20\n      add\n        /* \"contracts/4_Ebbix.sol\":1371:1375  true */\n      0x01\n        /* \"contracts/4_Ebbix.sol\":1354:1379  User(msg.sender, true, 0) */\n      iszero\n      iszero\n      dup2\n      mstore\n      0x20\n      add\n        /* \"contracts/4_Ebbix.sol\":1377:1378  0 */\n      0x00\n        /* \"contracts/4_Ebbix.sol\":1354:1379  User(msg.sender, true, 0) */\n      dup2\n      mstore\n      pop\n        /* \"contracts/4_Ebbix.sol\":1334:1339  users */\n      0x04\n        /* \"contracts/4_Ebbix.sol\":1334:1351  users[msg.sender] */\n      0x00\n        /* \"contracts/4_Ebbix.sol\":1340:1350  msg.sender */\n      caller\n        /* \"contracts/4_Ebbix.sol\":1334:1351  users[msg.sender] */\n      0xffffffffffffffffffffffffffffffffffffffff\n      and\n      0xffffffffffffffffffffffffffffffffffffffff\n      and\n      dup2\n      mstore\n      0x20\n      add\n      swap1\n      dup2\n      mstore\n      0x20\n      add\n      0x00\n      keccak256\n        /* \"contracts/4_Ebbix.sol\":1334:1379  users[msg.sender] = User(msg.sender, true, 0) */\n      0x00\n      dup3\n      add\n      mload\n      dup2\n      0x00\n      add\n      exp(0x0100, 0x00)\n      dup2\n      sload\n      dup2\n      0xffffffffffffffffffffffffffffffffffffffff\n      mul\n      not\n      and\n      swap1\n      dup4\n      0xffffffffffffffffffffffffffffffffffffffff\n      and\n      mul\n      or\n      swap1\n      sstore\n      pop\n      0x20\n      dup3\n      add\n      mload\n      dup2\n      0x00\n      add\n      exp(0x0100, 0x14)\n      dup2\n      sload\n      dup2\n      0xff\n      mul\n      not\n      and\n      swap1\n      dup4\n      iszero\n      iszero\n      mul\n      or\n      swap1\n      sstore\n      pop\n      0x40\n      dup3\n      add\n      mload\n      dup2\n      0x01\n      add\n      sstore\n      swap1\n      pop\n      pop\n        /* \"contracts/4_Ebbix.sol\":1410:1420  msg.sender */\n      caller\n        /* \"contracts/4_Ebbix.sol\":1395:1421  UserRegistered(msg.sender) */\n      0xffffffffffffffffffffffffffffffffffffffff\n      and\n      0x54db7a5cb4735e1aac1f53db512d3390390bb6637bd30ad4bf9fc98667d9b9b9\n      mload(0x40)\n      mload(0x40)\n      dup1\n      swap2\n      sub\n      swap1\n      log2\n        /* \"contracts/4_Ebbix.sol\":1216:1429  function registerUser() public {... */\n      jump\t// out\n        /* \"contracts/4_Ebbix.sol\":363:396  uint public rewardThreshold = 100 */\n    tag_34:\n      sload(0x02)\n      dup2\n      jump\t// out\n        /* \"contracts/4_Ebbix.sol\":2901:3010  function withdrawBalance() public onlyOwner {... */\n    tag_39:\n        /* \"contracts/4_Ebbix.sol\":939:944  owner */\n      0x00\n      0x00\n      swap1\n      sload\n      swap1\n      0x0100\n      exp\n      swap1\n      div\n      0xffffffffffffffffffffffffffffffffffffffff\n      and\n        /* \"contracts/4_Ebbix.sol\":925:944  msg.sender == owner */\n      0xffffffffffffffffffffffffffffffffffffffff\n      and\n        /* \"contracts/4_Ebbix.sol\":925:935  msg.sender */\n      caller\n        /* \"contracts/4_Ebbix.sol\":925:944  msg.sender == owner */\n      0xffffffffffffffffffffffffffffffffffffffff\n      and\n      eq\n        /* \"contracts/4_Ebbix.sol\":917:976  require(msg.sender == owner, \"Only owner can execute this\") */\n      tag_103\n      jumpi\n      mload(0x40)\n      0x08c379a000000000000000000000000000000000000000000000000000000000\n      dup2\n      mstore\n      0x04\n      add\n      tag_104\n      swap1\n      tag_83\n      jump\t// in\n    tag_104:\n      mload(0x40)\n      dup1\n      swap2\n      sub\n      swap1\n      revert\n    tag_103:\n        /* \"contracts/4_Ebbix.sol\":2964:2969  owner */\n      0x00\n      0x00\n      swap1\n      sload\n      swap1\n      0x0100\n      exp\n      swap1\n      div\n      0xffffffffffffffffffffffffffffffffffffffff\n      and\n        /* \"contracts/4_Ebbix.sol\":2956:2979  payable(owner).transfer */\n      0xffffffffffffffffffffffffffffffffffffffff\n      and\n        /* \"contracts/4_Ebbix.sol\":2956:3002  payable(owner).transfer(address(this).balance) */\n      0x08fc\n        /* \"contracts/4_Ebbix.sol\":2980:3001  address(this).balance */\n      selfbalance\n        /* \"contracts/4_Ebbix.sol\":2956:3002  payable(owner).transfer(address(this).balance) */\n      swap1\n      dup2\n      iszero\n      mul\n      swap1\n      mload(0x40)\n      0x00\n      mload(0x40)\n      dup1\n      dup4\n      sub\n      dup2\n      dup6\n      dup9\n      dup9\n      call\n      swap4\n      pop\n      pop\n      pop\n      pop\n      iszero\n      dup1\n      iszero\n      tag_107\n      jumpi\n      returndatacopy(0x00, 0x00, returndatasize)\n      revert(0x00, returndatasize)\n    tag_107:\n      pop\n        /* \"contracts/4_Ebbix.sol\":2901:3010  function withdrawBalance() public onlyOwner {... */\n      jump\t// out\n        /* \"contracts/4_Ebbix.sol\":3047:3151  function getContractBalance() public view returns (uint) {... */\n    tag_42:\n        /* \"contracts/4_Ebbix.sol\":3098:3102  uint */\n      0x00\n        /* \"contracts/4_Ebbix.sol\":3122:3143  address(this).balance */\n      selfbalance\n        /* \"contracts/4_Ebbix.sol\":3115:3143  return address(this).balance */\n      swap1\n      pop\n        /* \"contracts/4_Ebbix.sol\":3047:3151  function getContractBalance() public view returns (uint) {... */\n      swap1\n      jump\t// out\n        /* \"contracts/4_Ebbix.sol\":301:321  address public owner */\n    tag_46:\n      0x00\n      0x00\n      swap1\n      sload\n      swap1\n      0x0100\n      exp\n      swap1\n      div\n      0xffffffffffffffffffffffffffffffffffffffff\n      and\n      dup2\n      jump\t// out\n        /* \"contracts/4_Ebbix.sol\":511:548  mapping(address => User) public users */\n    tag_52:\n      mstore(0x20, 0x04)\n      dup1\n      0x00\n      mstore\n      keccak256(0x00, 0x40)\n      0x00\n      swap2\n      pop\n      swap1\n      pop\n      dup1\n      0x00\n      add\n      0x00\n      swap1\n      sload\n      swap1\n      0x0100\n      exp\n      swap1\n      div\n      0xffffffffffffffffffffffffffffffffffffffff\n      and\n      swap1\n      dup1\n      0x00\n      add\n      0x14\n      swap1\n      sload\n      swap1\n      0x0100\n      exp\n      swap1\n      div\n      0xff\n      and\n      swap1\n      dup1\n      0x01\n      add\n      sload\n      swap1\n      pop\n      dup4\n      jump\t// out\n        /* \"contracts/4_Ebbix.sol\":555:595  mapping(uint => Content) public contents */\n    tag_58:\n      mstore(0x20, 0x05)\n      dup1\n      0x00\n      mstore\n      keccak256(0x00, 0x40)\n      0x00\n      swap2\n      pop\n      swap1\n      pop\n      dup1\n      0x00\n      add\n      0x00\n      swap1\n      sload\n      swap1\n      0x0100\n      exp\n      swap1\n      div\n      0xffffffffffffffffffffffffffffffffffffffff\n      and\n      swap1\n      dup1\n      0x01\n      add\n      dup1\n      sload\n      tag_109\n      swap1\n      tag_110\n      jump\t// in\n    tag_109:\n      dup1\n      0x1f\n      add\n      0x20\n      dup1\n      swap2\n      div\n      mul\n      0x20\n      add\n      mload(0x40)\n      swap1\n      dup2\n      add\n      0x40\n      mstore\n      dup1\n      swap3\n      swap2\n      swap1\n      dup2\n      dup2\n      mstore\n      0x20\n      add\n      dup3\n      dup1\n      sload\n      tag_111\n      swap1\n      tag_110\n      jump\t// in\n    tag_111:\n      dup1\n      iszero\n      tag_112\n      jumpi\n      dup1\n      0x1f\n      lt\n      tag_113\n      jumpi\n      0x0100\n      dup1\n      dup4\n      sload\n      div\n      mul\n      dup4\n      mstore\n      swap2\n      0x20\n      add\n      swap2\n      jump(tag_112)\n    tag_113:\n      dup3\n      add\n      swap2\n      swap1\n      0x00\n      mstore\n      keccak256(0x00, 0x20)\n      swap1\n    tag_114:\n      dup2\n      sload\n      dup2\n      mstore\n      swap1\n      0x01\n      add\n      swap1\n      0x20\n      add\n      dup1\n      dup4\n      gt\n      tag_114\n      jumpi\n      dup3\n      swap1\n      sub\n      0x1f\n      and\n      dup3\n      add\n      swap2\n    tag_112:\n      pop\n      pop\n      pop\n      pop\n      pop\n      swap1\n      dup1\n      0x02\n      add\n      0x00\n      swap1\n      sload\n      swap1\n      0x0100\n      exp\n      swap1\n      div\n      0xff\n      and\n      swap1\n      pop\n      dup4\n      jump\t// out\n        /* \"contracts/4_Ebbix.sol\":2498:2549  function fundContract() public payable onlyOwner {} */\n    tag_62:\n        /* \"contracts/4_Ebbix.sol\":939:944  owner */\n      0x00\n      0x00\n      swap1\n      sload\n      swap1\n      0x0100\n      exp\n      swap1\n      div\n      0xffffffffffffffffffffffffffffffffffffffff\n      and\n        /* \"contracts/4_Ebbix.sol\":925:944  msg.sender == owner */\n      0xffffffffffffffffffffffffffffffffffffffff\n      and\n        /* \"contracts/4_Ebbix.sol\":925:935  msg.sender */\n      caller\n        /* \"contracts/4_Ebbix.sol\":925:944  msg.sender == owner */\n      0xffffffffffffffffffffffffffffffffffffffff\n      and\n      eq\n        /* \"contracts/4_Ebbix.sol\":917:976  require(msg.sender == owner, \"Only owner can execute this\") */\n      tag_116\n      jumpi\n      mload(0x40)\n      0x08c379a000000000000000000000000000000000000000000000000000000000\n      dup2\n      mstore\n      0x04\n      add\n      tag_117\n      swap1\n      tag_83\n      jump\t// in\n    tag_117:\n      mload(0x40)\n      dup1\n      swap2\n      sub\n      swap1\n      revert\n    tag_116:\n        /* \"contracts/4_Ebbix.sol\":2498:2549  function fundContract() public payable onlyOwner {} */\n      jump\t// out\n        /* \"contracts/4_Ebbix.sol\":1460:1704  function uploadContent(string memory metadata) public onlyRegistered {... */\n    tag_67:\n        /* \"contracts/4_Ebbix.sol\":1049:1054  users */\n      0x04\n        /* \"contracts/4_Ebbix.sol\":1049:1066  users[msg.sender] */\n      0x00\n        /* \"contracts/4_Ebbix.sol\":1055:1065  msg.sender */\n      caller\n        /* \"contracts/4_Ebbix.sol\":1049:1066  users[msg.sender] */\n      0xffffffffffffffffffffffffffffffffffffffff\n      and\n      0xffffffffffffffffffffffffffffffffffffffff\n      and\n      dup2\n      mstore\n      0x20\n      add\n      swap1\n      dup2\n      mstore\n      0x20\n      add\n      0x00\n      keccak256\n        /* \"contracts/4_Ebbix.sol\":1049:1077  users[msg.sender].registered */\n      0x00\n      add\n      0x14\n      swap1\n      sload\n      swap1\n      0x0100\n      exp\n      swap1\n      div\n      0xff\n      and\n        /* \"contracts/4_Ebbix.sol\":1041:1101  require(users[msg.sender].registered, \"User not registered\") */\n      tag_120\n      jumpi\n      mload(0x40)\n      0x08c379a000000000000000000000000000000000000000000000000000000000\n      dup2\n      mstore\n      0x04\n      add\n      tag_121\n      swap1\n      tag_88\n      jump\t// in\n    tag_121:\n      mload(0x40)\n      dup1\n      swap2\n      sub\n      swap1\n      revert\n    tag_120:\n        /* \"contracts/4_Ebbix.sol\":1565:1600  Content(msg.sender, metadata, true) */\n      mload(0x40)\n      dup1\n      0x60\n      add\n      0x40\n      mstore\n      dup1\n        /* \"contracts/4_Ebbix.sol\":1573:1583  msg.sender */\n      caller\n        /* \"contracts/4_Ebbix.sol\":1565:1600  Content(msg.sender, metadata, true) */\n      0xffffffffffffffffffffffffffffffffffffffff\n      and\n      dup2\n      mstore\n      0x20\n      add\n        /* \"contracts/4_Ebbix.sol\":1585:1593  metadata */\n      dup3\n        /* \"contracts/4_Ebbix.sol\":1565:1600  Content(msg.sender, metadata, true) */\n      dup2\n      mstore\n      0x20\n      add\n        /* \"contracts/4_Ebbix.sol\":1595:1599  true */\n      0x01\n        /* \"contracts/4_Ebbix.sol\":1565:1600  Content(msg.sender, metadata, true) */\n      iszero\n      iszero\n      dup2\n      mstore\n      pop\n        /* \"contracts/4_Ebbix.sol\":1540:1548  contents */\n      0x05\n        /* \"contracts/4_Ebbix.sol\":1540:1562  contents[contentCount] */\n      0x00\n        /* \"contracts/4_Ebbix.sol\":1549:1561  contentCount */\n      sload(0x01)\n        /* \"contracts/4_Ebbix.sol\":1540:1562  contents[contentCount] */\n      dup2\n      mstore\n      0x20\n      add\n      swap1\n      dup2\n      mstore\n      0x20\n      add\n      0x00\n      keccak256\n        /* \"contracts/4_Ebbix.sol\":1540:1600  contents[contentCount] = Content(msg.sender, metadata, true) */\n      0x00\n      dup3\n      add\n      mload\n      dup2\n      0x00\n      add\n      exp(0x0100, 0x00)\n      dup2\n      sload\n      dup2\n      0xffffffffffffffffffffffffffffffffffffffff\n      mul\n      not\n      and\n      swap1\n      dup4\n      0xffffffffffffffffffffffffffffffffffffffff\n      and\n      mul\n      or\n      swap1\n      sstore\n      pop\n      0x20\n      dup3\n      add\n      mload\n      dup2\n      0x01\n      add\n      swap1\n      dup2\n      tag_123\n      swap2\n      swap1\n      tag_124\n      jump\t// in\n    tag_123:\n      pop\n      0x40\n      dup3\n      add\n      mload\n      dup2\n      0x02\n      add\n      exp(0x0100, 0x00)\n      dup2\n      sload\n      dup2\n      0xff\n      mul\n      not\n      and\n      swap1\n      dup4\n      iszero\n      iszero\n      mul\n      or\n      swap1\n      sstore\n      pop\n      swap1\n      pop\n      pop\n        /* \"contracts/4_Ebbix.sol\":1611:1623  contentCount */\n      0x01\n      0x00\n        /* \"contracts/4_Ebbix.sol\":1611:1625  contentCount++ */\n      dup2\n      sload\n      dup1\n      swap3\n      swap2\n      swap1\n      tag_125\n      swap1\n      tag_94\n      jump\t// in\n    tag_125:\n      swap2\n      swap1\n      pop\n      sstore\n      pop\n        /* \"contracts/4_Ebbix.sol\":1675:1685  msg.sender */\n      caller\n        /* \"contracts/4_Ebbix.sol\":1641:1696  ContentUploaded(contentCount - 1, msg.sender, metadata) */\n      0xffffffffffffffffffffffffffffffffffffffff\n      and\n      0x9b254a01196130d4769a7e8e9a24ddff300fd957e55e026cbc14978eef3b62b8\n        /* \"contracts/4_Ebbix.sol\":1672:1673  1 */\n      0x01\n        /* \"contracts/4_Ebbix.sol\":1657:1669  contentCount */\n      dup1\n      sload\n        /* \"contracts/4_Ebbix.sol\":1657:1673  contentCount - 1 */\n      tag_126\n      swap2\n      swap1\n      tag_127\n      jump\t// in\n    tag_126:\n        /* \"contracts/4_Ebbix.sol\":1687:1695  metadata */\n      dup4\n        /* \"contracts/4_Ebbix.sol\":1641:1696  ContentUploaded(contentCount - 1, msg.sender, metadata) */\n      mload(0x40)\n      tag_128\n      swap3\n      swap2\n      swap1\n      tag_129\n      jump\t// in\n    tag_128:\n      mload(0x40)\n      dup1\n      swap2\n      sub\n      swap1\n      log2\n        /* \"contracts/4_Ebbix.sol\":1460:1704  function uploadContent(string memory metadata) public onlyRegistered {... */\n      pop\n      jump\t// out\n        /* \"contracts/4_Ebbix.sol\":328:356  uint public contentCount = 0 */\n    tag_70:\n      sload(0x01)\n      dup2\n      jump\t// out\n        /* \"contracts/4_Ebbix.sol\":2589:2705  function updateRewardThreshold(uint newThreshold) public onlyOwner {... */\n    tag_75:\n        /* \"contracts/4_Ebbix.sol\":939:944  owner */\n      0x00\n      0x00\n      swap1\n      sload\n      swap1\n      0x0100\n      exp\n      swap1\n      div\n      0xffffffffffffffffffffffffffffffffffffffff\n      and\n        /* \"contracts/4_Ebbix.sol\":925:944  msg.sender == owner */\n      0xffffffffffffffffffffffffffffffffffffffff\n      and\n        /* \"contracts/4_Ebbix.sol\":925:935  msg.sender */\n      caller\n        /* \"contracts/4_Ebbix.sol\":925:944  msg.sender == owner */\n      0xffffffffffffffffffffffffffffffffffffffff\n      and\n      eq\n        /* \"contracts/4_Ebbix.sol\":917:976  require(msg.sender == owner, \"Only owner can execute this\") */\n      tag_131\n      jumpi\n      mload(0x40)\n      0x08c379a000000000000000000000000000000000000000000000000000000000\n      dup2\n      mstore\n      0x04\n      add\n      tag_132\n      swap1\n      tag_83\n      jump\t// in\n    tag_132:\n      mload(0x40)\n      dup1\n      swap2\n      sub\n      swap1\n      revert\n    tag_131:\n        /* \"contracts/4_Ebbix.sol\":2685:2697  newThreshold */\n      dup1\n        /* \"contracts/4_Ebbix.sol\":2667:2682  rewardThreshold */\n      0x02\n        /* \"contracts/4_Ebbix.sol\":2667:2697  rewardThreshold = newThreshold */\n      dup2\n      swap1\n      sstore\n      pop\n        /* \"contracts/4_Ebbix.sol\":2589:2705  function updateRewardThreshold(uint newThreshold) public onlyOwner {... */\n      pop\n      jump\t// out\n        /* \"contracts/4_Ebbix.sol\":440:477  uint public rewardAmount = 0.01 ether */\n    tag_78:\n      sload(0x03)\n      dup2\n      jump\t// out\n        /* \"contracts/4_Ebbix.sol\":2193:2449  function distributeReward(address creator) internal {... */\n    tag_97:\n        /* \"contracts/4_Ebbix.sol\":2289:2301  rewardAmount */\n      sload(0x03)\n        /* \"contracts/4_Ebbix.sol\":2264:2285  address(this).balance */\n      selfbalance\n        /* \"contracts/4_Ebbix.sol\":2264:2301  address(this).balance >= rewardAmount */\n      lt\n      iszero\n        /* \"contracts/4_Ebbix.sol\":2256:2335  require(address(this).balance >= rewardAmount, \"Insufficient contract balance\") */\n      tag_135\n      jumpi\n      mload(0x40)\n      0x08c379a000000000000000000000000000000000000000000000000000000000\n      dup2\n      mstore\n      0x04\n      add\n      tag_136\n      swap1\n      tag_137\n      jump\t// in\n    tag_136:\n      mload(0x40)\n      dup1\n      swap2\n      sub\n      swap1\n      revert\n    tag_135:\n        /* \"contracts/4_Ebbix.sol\":2354:2361  creator */\n      dup1\n        /* \"contracts/4_Ebbix.sol\":2346:2371  payable(creator).transfer */\n      0xffffffffffffffffffffffffffffffffffffffff\n      and\n        /* \"contracts/4_Ebbix.sol\":2346:2385  payable(creator).transfer(rewardAmount) */\n      0x08fc\n        /* \"contracts/4_Ebbix.sol\":2372:2384  rewardAmount */\n      sload(0x03)\n        /* \"contracts/4_Ebbix.sol\":2346:2385  payable(creator).transfer(rewardAmount) */\n      swap1\n      dup2\n      iszero\n      mul\n      swap1\n      mload(0x40)\n      0x00\n      mload(0x40)\n      dup1\n      dup4\n      sub\n      dup2\n      dup6\n      dup9\n      dup9\n      call\n      swap4\n      pop\n      pop\n      pop\n      pop\n      iszero\n      dup1\n      iszero\n      tag_139\n      jumpi\n      returndatacopy(0x00, 0x00, returndatasize)\n      revert(0x00, returndatasize)\n    tag_139:\n      pop\n        /* \"contracts/4_Ebbix.sol\":2419:2426  creator */\n      dup1\n        /* \"contracts/4_Ebbix.sol\":2401:2441  RewardDistributed(creator, rewardAmount) */\n      0xffffffffffffffffffffffffffffffffffffffff\n      and\n      0xe34918ff1c7084970068b53fd71ad6d8b04e9f15d3886cbf006443e6cdc52ea6\n        /* \"contracts/4_Ebbix.sol\":2428:2440  rewardAmount */\n      sload(0x03)\n        /* \"contracts/4_Ebbix.sol\":2401:2441  RewardDistributed(creator, rewardAmount) */\n      mload(0x40)\n      tag_140\n      swap2\n      swap1\n      tag_36\n      jump\t// in\n    tag_140:\n      mload(0x40)\n      dup1\n      swap2\n      sub\n      swap1\n      log2\n        /* \"contracts/4_Ebbix.sol\":2193:2449  function distributeReward(address creator) internal {... */\n      pop\n      jump\t// out\n        /* \"#utility.yul\":7:82   */\n    tag_141:\n        /* \"#utility.yul\":40:46   */\n      0x00\n        /* \"#utility.yul\":73:75   */\n      0x40\n        /* \"#utility.yul\":67:76   */\n      mload\n        /* \"#utility.yul\":57:76   */\n      swap1\n      pop\n        /* \"#utility.yul\":7:82   */\n      swap1\n      jump\t// out\n        /* \"#utility.yul\":88:205   */\n    tag_142:\n        /* \"#utility.yul\":197:198   */\n      0x00\n        /* \"#utility.yul\":194:195   */\n      0x00\n        /* \"#utility.yul\":187:199   */\n      revert\n        /* \"#utility.yul\":211:328   */\n    tag_143:\n        /* \"#utility.yul\":320:321   */\n      0x00\n        /* \"#utility.yul\":317:318   */\n      0x00\n        /* \"#utility.yul\":310:322   */\n      revert\n        /* \"#utility.yul\":334:411   */\n    tag_144:\n        /* \"#utility.yul\":371:378   */\n      0x00\n        /* \"#utility.yul\":400:405   */\n      dup2\n        /* \"#utility.yul\":389:405   */\n      swap1\n      pop\n        /* \"#utility.yul\":334:411   */\n      swap2\n      swap1\n      pop\n      jump\t// out\n        /* \"#utility.yul\":417:539   */\n    tag_145:\n        /* \"#utility.yul\":490:514   */\n      tag_202\n        /* \"#utility.yul\":508:513   */\n      dup2\n        /* \"#utility.yul\":490:514   */\n      tag_144\n      jump\t// in\n    tag_202:\n        /* \"#utility.yul\":483:488   */\n      dup2\n        /* \"#utility.yul\":480:515   */\n      eq\n        /* \"#utility.yul\":470:533   */\n      tag_203\n      jumpi\n        /* \"#utility.yul\":529:530   */\n      0x00\n        /* \"#utility.yul\":526:527   */\n      0x00\n        /* \"#utility.yul\":519:531   */\n      revert\n        /* \"#utility.yul\":470:533   */\n    tag_203:\n        /* \"#utility.yul\":417:539   */\n      pop\n      jump\t// out\n        /* \"#utility.yul\":545:684   */\n    tag_146:\n        /* \"#utility.yul\":591:596   */\n      0x00\n        /* \"#utility.yul\":629:635   */\n      dup2\n        /* \"#utility.yul\":616:636   */\n      calldataload\n        /* \"#utility.yul\":607:636   */\n      swap1\n      pop\n        /* \"#utility.yul\":645:678   */\n      tag_205\n        /* \"#utility.yul\":672:677   */\n      dup2\n        /* \"#utility.yul\":645:678   */\n      tag_145\n      jump\t// in\n    tag_205:\n        /* \"#utility.yul\":545:684   */\n      swap3\n      swap2\n      pop\n      pop\n      jump\t// out\n        /* \"#utility.yul\":690:1019   */\n    tag_22:\n        /* \"#utility.yul\":749:755   */\n      0x00\n        /* \"#utility.yul\":798:800   */\n      0x20\n        /* \"#utility.yul\":786:795   */\n      dup3\n        /* \"#utility.yul\":777:784   */\n      dup5\n        /* \"#utility.yul\":773:796   */\n      sub\n        /* \"#utility.yul\":769:801   */\n      slt\n        /* \"#utility.yul\":766:885   */\n      iszero\n      tag_207\n      jumpi\n        /* \"#utility.yul\":804:883   */\n      tag_208\n      tag_142\n      jump\t// in\n    tag_208:\n        /* \"#utility.yul\":766:885   */\n    tag_207:\n        /* \"#utility.yul\":924:925   */\n      0x00\n        /* \"#utility.yul\":949:1002   */\n      tag_209\n        /* \"#utility.yul\":994:1001   */\n      dup5\n        /* \"#utility.yul\":985:991   */\n      dup3\n        /* \"#utility.yul\":974:983   */\n      dup6\n        /* \"#utility.yul\":970:992   */\n      add\n        /* \"#utility.yul\":949:1002   */\n      tag_146\n      jump\t// in\n    tag_209:\n        /* \"#utility.yul\":939:1002   */\n      swap2\n      pop\n        /* \"#utility.yul\":895:1012   */\n      pop\n        /* \"#utility.yul\":690:1019   */\n      swap3\n      swap2\n      pop\n      pop\n      jump\t// out\n        /* \"#utility.yul\":1025:1151   */\n    tag_147:\n        /* \"#utility.yul\":1062:1069   */\n      0x00\n        /* \"#utility.yul\":1102:1144   */\n      0xffffffffffffffffffffffffffffffffffffffff\n        /* \"#utility.yul\":1095:1100   */\n      dup3\n        /* \"#utility.yul\":1091:1145   */\n      and\n        /* \"#utility.yul\":1080:1145   */\n      swap1\n      pop\n        /* \"#utility.yul\":1025:1151   */\n      swap2\n      swap1\n      pop\n      jump\t// out\n        /* \"#utility.yul\":1157:1253   */\n    tag_148:\n        /* \"#utility.yul\":1194:1201   */\n      0x00\n        /* \"#utility.yul\":1223:1247   */\n      tag_212\n        /* \"#utility.yul\":1241:1246   */\n      dup3\n        /* \"#utility.yul\":1223:1247   */\n      tag_147\n      jump\t// in\n    tag_212:\n        /* \"#utility.yul\":1212:1247   */\n      swap1\n      pop\n        /* \"#utility.yul\":1157:1253   */\n      swap2\n      swap1\n      pop\n      jump\t// out\n        /* \"#utility.yul\":1259:1381   */\n    tag_149:\n        /* \"#utility.yul\":1332:1356   */\n      tag_214\n        /* \"#utility.yul\":1350:1355   */\n      dup2\n        /* \"#utility.yul\":1332:1356   */\n      tag_148\n      jump\t// in\n    tag_214:\n        /* \"#utility.yul\":1325:1330   */\n      dup2\n        /* \"#utility.yul\":1322:1357   */\n      eq\n        /* \"#utility.yul\":1312:1375   */\n      tag_215\n      jumpi\n        /* \"#utility.yul\":1371:1372   */\n      0x00\n        /* \"#utility.yul\":1368:1369   */\n      0x00\n        /* \"#utility.yul\":1361:1373   */\n      revert\n        /* \"#utility.yul\":1312:1375   */\n    tag_215:\n        /* \"#utility.yul\":1259:1381   */\n      pop\n      jump\t// out\n        /* \"#utility.yul\":1387:1526   */\n    tag_150:\n        /* \"#utility.yul\":1433:1438   */\n      0x00\n        /* \"#utility.yul\":1471:1477   */\n      dup2\n        /* \"#utility.yul\":1458:1478   */\n      calldataload\n        /* \"#utility.yul\":1449:1478   */\n      swap1\n      pop\n        /* \"#utility.yul\":1487:1520   */\n      tag_217\n        /* \"#utility.yul\":1514:1519   */\n      dup2\n        /* \"#utility.yul\":1487:1520   */\n      tag_149\n      jump\t// in\n    tag_217:\n        /* \"#utility.yul\":1387:1526   */\n      swap3\n      swap2\n      pop\n      pop\n      jump\t// out\n        /* \"#utility.yul\":1532:1861   */\n    tag_27:\n        /* \"#utility.yul\":1591:1597   */\n      0x00\n        /* \"#utility.yul\":1640:1642   */\n      0x20\n        /* \"#utility.yul\":1628:1637   */\n      dup3\n        /* \"#utility.yul\":1619:1626   */\n      dup5\n        /* \"#utility.yul\":1615:1638   */\n      sub\n        /* \"#utility.yul\":1611:1643   */\n      slt\n        /* \"#utility.yul\":1608:1727   */\n      iszero\n      tag_219\n      jumpi\n        /* \"#utility.yul\":1646:1725   */\n      tag_220\n      tag_142\n      jump\t// in\n    tag_220:\n        /* \"#utility.yul\":1608:1727   */\n    tag_219:\n        /* \"#utility.yul\":1766:1767   */\n      0x00\n        /* \"#utility.yul\":1791:1844   */\n      tag_221\n        /* \"#utility.yul\":1836:1843   */\n      dup5\n        /* \"#utility.yul\":1827:1833   */\n      dup3\n        /* \"#utility.yul\":1816:1825   */\n      dup6\n        /* \"#utility.yul\":1812:1834   */\n      add\n        /* \"#utility.yul\":1791:1844   */\n      tag_150\n      jump\t// in\n    tag_221:\n        /* \"#utility.yul\":1781:1844   */\n      swap2\n      pop\n        /* \"#utility.yul\":1737:1854   */\n      pop\n        /* \"#utility.yul\":1532:1861   */\n      swap3\n      swap2\n      pop\n      pop\n      jump\t// out\n        /* \"#utility.yul\":1867:1985   */\n    tag_151:\n        /* \"#utility.yul\":1954:1978   */\n      tag_223\n        /* \"#utility.yul\":1972:1977   */\n      dup2\n        /* \"#utility.yul\":1954:1978   */\n      tag_144\n      jump\t// in\n    tag_223:\n        /* \"#utility.yul\":1949:1952   */\n      dup3\n        /* \"#utility.yul\":1942:1979   */\n      mstore\n        /* \"#utility.yul\":1867:1985   */\n      pop\n      pop\n      jump\t// out\n        /* \"#utility.yul\":1991:2213   */\n    tag_36:\n        /* \"#utility.yul\":2084:2088   */\n      0x00\n        /* \"#utility.yul\":2122:2124   */\n      0x20\n        /* \"#utility.yul\":2111:2120   */\n      dup3\n        /* \"#utility.yul\":2107:2125   */\n      add\n        /* \"#utility.yul\":2099:2125   */\n      swap1\n      pop\n        /* \"#utility.yul\":2135:2206   */\n      tag_225\n        /* \"#utility.yul\":2203:2204   */\n      0x00\n        /* \"#utility.yul\":2192:2201   */\n      dup4\n        /* \"#utility.yul\":2188:2205   */\n      add\n        /* \"#utility.yul\":2179:2185   */\n      dup5\n        /* \"#utility.yul\":2135:2206   */\n      tag_151\n      jump\t// in\n    tag_225:\n        /* \"#utility.yul\":1991:2213   */\n      swap3\n      swap2\n      pop\n      pop\n      jump\t// out\n        /* \"#utility.yul\":2219:2337   */\n    tag_152:\n        /* \"#utility.yul\":2306:2330   */\n      tag_227\n        /* \"#utility.yul\":2324:2329   */\n      dup2\n        /* \"#utility.yul\":2306:2330   */\n      tag_148\n      jump\t// in\n    tag_227:\n        /* \"#utility.yul\":2301:2304   */\n      dup3\n        /* \"#utility.yul\":2294:2331   */\n      mstore\n        /* \"#utility.yul\":2219:2337   */\n      pop\n      pop\n      jump\t// out\n        /* \"#utility.yul\":2343:2565   */\n    tag_48:\n        /* \"#utility.yul\":2436:2440   */\n      0x00\n        /* \"#utility.yul\":2474:2476   */\n      0x20\n        /* \"#utility.yul\":2463:2472   */\n      dup3\n        /* \"#utility.yul\":2459:2477   */\n      add\n        /* \"#utility.yul\":2451:2477   */\n      swap1\n      pop\n        /* \"#utility.yul\":2487:2558   */\n      tag_229\n        /* \"#utility.yul\":2555:2556   */\n      0x00\n        /* \"#utility.yul\":2544:2553   */\n      dup4\n        /* \"#utility.yul\":2540:2557   */\n      add\n        /* \"#utility.yul\":2531:2537   */\n      dup5\n        /* \"#utility.yul\":2487:2558   */\n      tag_152\n      jump\t// in\n    tag_229:\n        /* \"#utility.yul\":2343:2565   */\n      swap3\n      swap2\n      pop\n      pop\n      jump\t// out\n        /* \"#utility.yul\":2571:2661   */\n    tag_153:\n        /* \"#utility.yul\":2605:2612   */\n      0x00\n        /* \"#utility.yul\":2648:2653   */\n      dup2\n        /* \"#utility.yul\":2641:2654   */\n      iszero\n        /* \"#utility.yul\":2634:2655   */\n      iszero\n        /* \"#utility.yul\":2623:2655   */\n      swap1\n      pop\n        /* \"#utility.yul\":2571:2661   */\n      swap2\n      swap1\n      pop\n      jump\t// out\n        /* \"#utility.yul\":2667:2776   */\n    tag_154:\n        /* \"#utility.yul\":2748:2769   */\n      tag_232\n        /* \"#utility.yul\":2763:2768   */\n      dup2\n        /* \"#utility.yul\":2748:2769   */\n      tag_153\n      jump\t// in\n    tag_232:\n        /* \"#utility.yul\":2743:2746   */\n      dup3\n        /* \"#utility.yul\":2736:2770   */\n      mstore\n        /* \"#utility.yul\":2667:2776   */\n      pop\n      pop\n      jump\t// out\n        /* \"#utility.yul\":2782:3212   */\n    tag_54:\n        /* \"#utility.yul\":2925:2929   */\n      0x00\n        /* \"#utility.yul\":2963:2965   */\n      0x60\n        /* \"#utility.yul\":2952:2961   */\n      dup3\n        /* \"#utility.yul\":2948:2966   */\n      add\n        /* \"#utility.yul\":2940:2966   */\n      swap1\n      pop\n        /* \"#utility.yul\":2976:3047   */\n      tag_234\n        /* \"#utility.yul\":3044:3045   */\n      0x00\n        /* \"#utility.yul\":3033:3042   */\n      dup4\n        /* \"#utility.yul\":3029:3046   */\n      add\n        /* \"#utility.yul\":3020:3026   */\n      dup7\n        /* \"#utility.yul\":2976:3047   */\n      tag_152\n      jump\t// in\n    tag_234:\n        /* \"#utility.yul\":3057:3123   */\n      tag_235\n        /* \"#utility.yul\":3119:3121   */\n      0x20\n        /* \"#utility.yul\":3108:3117   */\n      dup4\n        /* \"#utility.yul\":3104:3122   */\n      add\n        /* \"#utility.yul\":3095:3101   */\n      dup6\n        /* \"#utility.yul\":3057:3123   */\n      tag_154\n      jump\t// in\n    tag_235:\n        /* \"#utility.yul\":3133:3205   */\n      tag_236\n        /* \"#utility.yul\":3201:3203   */\n      0x40\n        /* \"#utility.yul\":3190:3199   */\n      dup4\n        /* \"#utility.yul\":3186:3204   */\n      add\n        /* \"#utility.yul\":3177:3183   */\n      dup5\n        /* \"#utility.yul\":3133:3205   */\n      tag_151\n      jump\t// in\n    tag_236:\n        /* \"#utility.yul\":2782:3212   */\n      swap5\n      swap4\n      pop\n      pop\n      pop\n      pop\n      jump\t// out\n        /* \"#utility.yul\":3218:3317   */\n    tag_155:\n        /* \"#utility.yul\":3270:3276   */\n      0x00\n        /* \"#utility.yul\":3304:3309   */\n      dup2\n        /* \"#utility.yul\":3298:3310   */\n      mload\n        /* \"#utility.yul\":3288:3310   */\n      swap1\n      pop\n        /* \"#utility.yul\":3218:3317   */\n      swap2\n      swap1\n      pop\n      jump\t// out\n        /* \"#utility.yul\":3323:3492   */\n    tag_156:\n        /* \"#utility.yul\":3407:3418   */\n      0x00\n        /* \"#utility.yul\":3441:3447   */\n      dup3\n        /* \"#utility.yul\":3436:3439   */\n      dup3\n        /* \"#utility.yul\":3429:3448   */\n      mstore\n        /* \"#utility.yul\":3481:3485   */\n      0x20\n        /* \"#utility.yul\":3476:3479   */\n      dup3\n        /* \"#utility.yul\":3472:3486   */\n      add\n        /* \"#utility.yul\":3457:3486   */\n      swap1\n      pop\n        /* \"#utility.yul\":3323:3492   */\n      swap3\n      swap2\n      pop\n      pop\n      jump\t// out\n        /* \"#utility.yul\":3498:3637   */\n    tag_157:\n        /* \"#utility.yul\":3587:3593   */\n      dup3\n        /* \"#utility.yul\":3582:3585   */\n      dup2\n        /* \"#utility.yul\":3577:3580   */\n      dup4\n        /* \"#utility.yul\":3571:3594   */\n      mcopy\n        /* \"#utility.yul\":3628:3629   */\n      0x00\n        /* \"#utility.yul\":3619:3625   */\n      dup4\n        /* \"#utility.yul\":3614:3617   */\n      dup4\n        /* \"#utility.yul\":3610:3626   */\n      add\n        /* \"#utility.yul\":3603:3630   */\n      mstore\n        /* \"#utility.yul\":3498:3637   */\n      pop\n      pop\n      pop\n      jump\t// out\n        /* \"#utility.yul\":3643:3745   */\n    tag_158:\n        /* \"#utility.yul\":3684:3690   */\n      0x00\n        /* \"#utility.yul\":3735:3737   */\n      0x1f\n        /* \"#utility.yul\":3731:3738   */\n      not\n        /* \"#utility.yul\":3726:3728   */\n      0x1f\n        /* \"#utility.yul\":3719:3724   */\n      dup4\n        /* \"#utility.yul\":3715:3729   */\n      add\n        /* \"#utility.yul\":3711:3739   */\n      and\n        /* \"#utility.yul\":3701:3739   */\n      swap1\n      pop\n        /* \"#utility.yul\":3643:3745   */\n      swap2\n      swap1\n      pop\n      jump\t// out\n        /* \"#utility.yul\":3751:4128   */\n    tag_159:\n        /* \"#utility.yul\":3839:3842   */\n      0x00\n        /* \"#utility.yul\":3867:3906   */\n      tag_242\n        /* \"#utility.yul\":3900:3905   */\n      dup3\n        /* \"#utility.yul\":3867:3906   */\n      tag_155\n      jump\t// in\n    tag_242:\n        /* \"#utility.yul\":3922:3993   */\n      tag_243\n        /* \"#utility.yul\":3986:3992   */\n      dup2\n        /* \"#utility.yul\":3981:3984   */\n      dup6\n        /* \"#utility.yul\":3922:3993   */\n      tag_156\n      jump\t// in\n    tag_243:\n        /* \"#utility.yul\":3915:3993   */\n      swap4\n      pop\n        /* \"#utility.yul\":4002:4067   */\n      tag_244\n        /* \"#utility.yul\":4060:4066   */\n      dup2\n        /* \"#utility.yul\":4055:4058   */\n      dup6\n        /* \"#utility.yul\":4048:4052   */\n      0x20\n        /* \"#utility.yul\":4041:4046   */\n      dup7\n        /* \"#utility.yul\":4037:4053   */\n      add\n        /* \"#utility.yul\":4002:4067   */\n      tag_157\n      jump\t// in\n    tag_244:\n        /* \"#utility.yul\":4092:4121   */\n      tag_245\n        /* \"#utility.yul\":4114:4120   */\n      dup2\n        /* \"#utility.yul\":4092:4121   */\n      tag_158\n      jump\t// in\n    tag_245:\n        /* \"#utility.yul\":4087:4090   */\n      dup5\n        /* \"#utility.yul\":4083:4122   */\n      add\n        /* \"#utility.yul\":4076:4122   */\n      swap2\n      pop\n        /* \"#utility.yul\":3843:4128   */\n      pop\n        /* \"#utility.yul\":3751:4128   */\n      swap3\n      swap2\n      pop\n      pop\n      jump\t// out\n        /* \"#utility.yul\":4134:4655   */\n    tag_60:\n        /* \"#utility.yul\":4297:4301   */\n      0x00\n        /* \"#utility.yul\":4335:4337   */\n      0x60\n        /* \"#utility.yul\":4324:4333   */\n      dup3\n        /* \"#utility.yul\":4320:4338   */\n      add\n        /* \"#utility.yul\":4312:4338   */\n      swap1\n      pop\n        /* \"#utility.yul\":4348:4419   */\n      tag_247\n        /* \"#utility.yul\":4416:4417   */\n      0x00\n        /* \"#utility.yul\":4405:4414   */\n      dup4\n        /* \"#utility.yul\":4401:4418   */\n      add\n        /* \"#utility.yul\":4392:4398   */\n      dup7\n        /* \"#utility.yul\":4348:4419   */\n      tag_152\n      jump\t// in\n    tag_247:\n        /* \"#utility.yul\":4466:4475   */\n      dup2\n        /* \"#utility.yul\":4460:4464   */\n      dup2\n        /* \"#utility.yul\":4456:4476   */\n      sub\n        /* \"#utility.yul\":4451:4453   */\n      0x20\n        /* \"#utility.yul\":4440:4449   */\n      dup4\n        /* \"#utility.yul\":4436:4454   */\n      add\n        /* \"#utility.yul\":4429:4477   */\n      mstore\n        /* \"#utility.yul\":4494:4572   */\n      tag_248\n        /* \"#utility.yul\":4567:4571   */\n      dup2\n        /* \"#utility.yul\":4558:4564   */\n      dup6\n        /* \"#utility.yul\":4494:4572   */\n      tag_159\n      jump\t// in\n    tag_248:\n        /* \"#utility.yul\":4486:4572   */\n      swap1\n      pop\n        /* \"#utility.yul\":4582:4648   */\n      tag_249\n        /* \"#utility.yul\":4644:4646   */\n      0x40\n        /* \"#utility.yul\":4633:4642   */\n      dup4\n        /* \"#utility.yul\":4629:4647   */\n      add\n        /* \"#utility.yul\":4620:4626   */\n      dup5\n        /* \"#utility.yul\":4582:4648   */\n      tag_154\n      jump\t// in\n    tag_249:\n        /* \"#utility.yul\":4134:4655   */\n      swap5\n      swap4\n      pop\n      pop\n      pop\n      pop\n      jump\t// out\n        /* \"#utility.yul\":4661:4778   */\n    tag_160:\n        /* \"#utility.yul\":4770:4771   */\n      0x00\n        /* \"#utility.yul\":4767:4768   */\n      0x00\n        /* \"#utility.yul\":4760:4772   */\n      revert\n        /* \"#utility.yul\":4784:4901   */\n    tag_161:\n        /* \"#utility.yul\":4893:4894   */\n      0x00\n        /* \"#utility.yul\":4890:4891   */\n      0x00\n        /* \"#utility.yul\":4883:4895   */\n      revert\n        /* \"#utility.yul\":4907:5087   */\n    tag_162:\n        /* \"#utility.yul\":4955:5032   */\n      0x4e487b7100000000000000000000000000000000000000000000000000000000\n        /* \"#utility.yul\":4952:4953   */\n      0x00\n        /* \"#utility.yul\":4945:5033   */\n      mstore\n        /* \"#utility.yul\":5052:5056   */\n      0x41\n        /* \"#utility.yul\":5049:5050   */\n      0x04\n        /* \"#utility.yul\":5042:5057   */\n      mstore\n        /* \"#utility.yul\":5076:5080   */\n      0x24\n        /* \"#utility.yul\":5073:5074   */\n      0x00\n        /* \"#utility.yul\":5066:5081   */\n      revert\n        /* \"#utility.yul\":5093:5374   */\n    tag_163:\n        /* \"#utility.yul\":5176:5203   */\n      tag_254\n        /* \"#utility.yul\":5198:5202   */\n      dup3\n        /* \"#utility.yul\":5176:5203   */\n      tag_158\n      jump\t// in\n    tag_254:\n        /* \"#utility.yul\":5168:5174   */\n      dup2\n        /* \"#utility.yul\":5164:5204   */\n      add\n        /* \"#utility.yul\":5306:5312   */\n      dup2\n        /* \"#utility.yul\":5294:5304   */\n      dup2\n        /* \"#utility.yul\":5291:5313   */\n      lt\n        /* \"#utility.yul\":5270:5288   */\n      0xffffffffffffffff\n        /* \"#utility.yul\":5258:5268   */\n      dup3\n        /* \"#utility.yul\":5255:5289   */\n      gt\n        /* \"#utility.yul\":5252:5314   */\n      or\n        /* \"#utility.yul\":5249:5337   */\n      iszero\n      tag_255\n      jumpi\n        /* \"#utility.yul\":5317:5335   */\n      tag_256\n      tag_162\n      jump\t// in\n    tag_256:\n        /* \"#utility.yul\":5249:5337   */\n    tag_255:\n        /* \"#utility.yul\":5357:5367   */\n      dup1\n        /* \"#utility.yul\":5353:5355   */\n      0x40\n        /* \"#utility.yul\":5346:5368   */\n      mstore\n        /* \"#utility.yul\":5136:5374   */\n      pop\n        /* \"#utility.yul\":5093:5374   */\n      pop\n      pop\n      jump\t// out\n        /* \"#utility.yul\":5380:5509   */\n    tag_164:\n        /* \"#utility.yul\":5414:5420   */\n      0x00\n        /* \"#utility.yul\":5441:5461   */\n      tag_258\n      tag_141\n      jump\t// in\n    tag_258:\n        /* \"#utility.yul\":5431:5461   */\n      swap1\n      pop\n        /* \"#utility.yul\":5470:5503   */\n      tag_259\n        /* \"#utility.yul\":5498:5502   */\n      dup3\n        /* \"#utility.yul\":5490:5496   */\n      dup3\n        /* \"#utility.yul\":5470:5503   */\n      tag_163\n      jump\t// in\n    tag_259:\n        /* \"#utility.yul\":5380:5509   */\n      swap2\n      swap1\n      pop\n      jump\t// out\n        /* \"#utility.yul\":5515:5823   */\n    tag_165:\n        /* \"#utility.yul\":5577:5581   */\n      0x00\n        /* \"#utility.yul\":5667:5685   */\n      0xffffffffffffffff\n        /* \"#utility.yul\":5659:5665   */\n      dup3\n        /* \"#utility.yul\":5656:5686   */\n      gt\n        /* \"#utility.yul\":5653:5709   */\n      iszero\n      tag_261\n      jumpi\n        /* \"#utility.yul\":5689:5707   */\n      tag_262\n      tag_162\n      jump\t// in\n    tag_262:\n        /* \"#utility.yul\":5653:5709   */\n    tag_261:\n        /* \"#utility.yul\":5727:5756   */\n      tag_263\n        /* \"#utility.yul\":5749:5755   */\n      dup3\n        /* \"#utility.yul\":5727:5756   */\n      tag_158\n      jump\t// in\n    tag_263:\n        /* \"#utility.yul\":5719:5756   */\n      swap1\n      pop\n        /* \"#utility.yul\":5811:5815   */\n      0x20\n        /* \"#utility.yul\":5805:5809   */\n      dup2\n        /* \"#utility.yul\":5801:5816   */\n      add\n        /* \"#utility.yul\":5793:5816   */\n      swap1\n      pop\n        /* \"#utility.yul\":5515:5823   */\n      swap2\n      swap1\n      pop\n      jump\t// out\n        /* \"#utility.yul\":5829:5977   */\n    tag_166:\n        /* \"#utility.yul\":5927:5933   */\n      dup3\n        /* \"#utility.yul\":5922:5925   */\n      dup2\n        /* \"#utility.yul\":5917:5920   */\n      dup4\n        /* \"#utility.yul\":5904:5934   */\n      calldatacopy\n        /* \"#utility.yul\":5968:5969   */\n      0x00\n        /* \"#utility.yul\":5959:5965   */\n      dup4\n        /* \"#utility.yul\":5954:5957   */\n      dup4\n        /* \"#utility.yul\":5950:5966   */\n      add\n        /* \"#utility.yul\":5943:5970   */\n      mstore\n        /* \"#utility.yul\":5829:5977   */\n      pop\n      pop\n      pop\n      jump\t// out\n        /* \"#utility.yul\":5983:6408   */\n    tag_167:\n        /* \"#utility.yul\":6061:6066   */\n      0x00\n        /* \"#utility.yul\":6086:6152   */\n      tag_266\n        /* \"#utility.yul\":6102:6151   */\n      tag_267\n        /* \"#utility.yul\":6144:6150   */\n      dup5\n        /* \"#utility.yul\":6102:6151   */\n      tag_165\n      jump\t// in\n    tag_267:\n        /* \"#utility.yul\":6086:6152   */\n      tag_164\n      jump\t// in\n    tag_266:\n        /* \"#utility.yul\":6077:6152   */\n      swap1\n      pop\n        /* \"#utility.yul\":6175:6181   */\n      dup3\n        /* \"#utility.yul\":6168:6173   */\n      dup2\n        /* \"#utility.yul\":6161:6182   */\n      mstore\n        /* \"#utility.yul\":6213:6217   */\n      0x20\n        /* \"#utility.yul\":6206:6211   */\n      dup2\n        /* \"#utility.yul\":6202:6218   */\n      add\n        /* \"#utility.yul\":6251:6254   */\n      dup5\n        /* \"#utility.yul\":6242:6248   */\n      dup5\n        /* \"#utility.yul\":6237:6240   */\n      dup5\n        /* \"#utility.yul\":6233:6249   */\n      add\n        /* \"#utility.yul\":6230:6255   */\n      gt\n        /* \"#utility.yul\":6227:6339   */\n      iszero\n      tag_268\n      jumpi\n        /* \"#utility.yul\":6258:6337   */\n      tag_269\n      tag_161\n      jump\t// in\n    tag_269:\n        /* \"#utility.yul\":6227:6339   */\n    tag_268:\n        /* \"#utility.yul\":6348:6402   */\n      tag_270\n        /* \"#utility.yul\":6395:6401   */\n      dup5\n        /* \"#utility.yul\":6390:6393   */\n      dup3\n        /* \"#utility.yul\":6385:6388   */\n      dup6\n        /* \"#utility.yul\":6348:6402   */\n      tag_166\n      jump\t// in\n    tag_270:\n        /* \"#utility.yul\":6067:6408   */\n      pop\n        /* \"#utility.yul\":5983:6408   */\n      swap4\n      swap3\n      pop\n      pop\n      pop\n      jump\t// out\n        /* \"#utility.yul\":6428:6768   */\n    tag_168:\n        /* \"#utility.yul\":6484:6489   */\n      0x00\n        /* \"#utility.yul\":6533:6536   */\n      dup3\n        /* \"#utility.yul\":6526:6530   */\n      0x1f\n        /* \"#utility.yul\":6518:6524   */\n      dup4\n        /* \"#utility.yul\":6514:6531   */\n      add\n        /* \"#utility.yul\":6510:6537   */\n      slt\n        /* \"#utility.yul\":6500:6622   */\n      tag_272\n      jumpi\n        /* \"#utility.yul\":6541:6620   */\n      tag_273\n      tag_160\n      jump\t// in\n    tag_273:\n        /* \"#utility.yul\":6500:6622   */\n    tag_272:\n        /* \"#utility.yul\":6658:6664   */\n      dup2\n        /* \"#utility.yul\":6645:6665   */\n      calldataload\n        /* \"#utility.yul\":6683:6762   */\n      tag_274\n        /* \"#utility.yul\":6758:6761   */\n      dup5\n        /* \"#utility.yul\":6750:6756   */\n      dup3\n        /* \"#utility.yul\":6743:6747   */\n      0x20\n        /* \"#utility.yul\":6735:6741   */\n      dup7\n        /* \"#utility.yul\":6731:6748   */\n      add\n        /* \"#utility.yul\":6683:6762   */\n      tag_167\n      jump\t// in\n    tag_274:\n        /* \"#utility.yul\":6674:6762   */\n      swap2\n      pop\n        /* \"#utility.yul\":6490:6768   */\n      pop\n        /* \"#utility.yul\":6428:6768   */\n      swap3\n      swap2\n      pop\n      pop\n      jump\t// out\n        /* \"#utility.yul\":6774:7283   */\n    tag_66:\n        /* \"#utility.yul\":6843:6849   */\n      0x00\n        /* \"#utility.yul\":6892:6894   */\n      0x20\n        /* \"#utility.yul\":6880:6889   */\n      dup3\n        /* \"#utility.yul\":6871:6878   */\n      dup5\n        /* \"#utility.yul\":6867:6890   */\n      sub\n        /* \"#utility.yul\":6863:6895   */\n      slt\n        /* \"#utility.yul\":6860:6979   */\n      iszero\n      tag_276\n      jumpi\n        /* \"#utility.yul\":6898:6977   */\n      tag_277\n      tag_142\n      jump\t// in\n    tag_277:\n        /* \"#utility.yul\":6860:6979   */\n    tag_276:\n        /* \"#utility.yul\":7046:7047   */\n      0x00\n        /* \"#utility.yul\":7035:7044   */\n      dup3\n        /* \"#utility.yul\":7031:7048   */\n      add\n        /* \"#utility.yul\":7018:7049   */\n      calldataload\n        /* \"#utility.yul\":7076:7094   */\n      0xffffffffffffffff\n        /* \"#utility.yul\":7068:7074   */\n      dup2\n        /* \"#utility.yul\":7065:7095   */\n      gt\n        /* \"#utility.yul\":7062:7179   */\n      iszero\n      tag_278\n      jumpi\n        /* \"#utility.yul\":7098:7177   */\n      tag_279\n      tag_143\n      jump\t// in\n    tag_279:\n        /* \"#utility.yul\":7062:7179   */\n    tag_278:\n        /* \"#utility.yul\":7203:7266   */\n      tag_280\n        /* \"#utility.yul\":7258:7265   */\n      dup5\n        /* \"#utility.yul\":7249:7255   */\n      dup3\n        /* \"#utility.yul\":7238:7247   */\n      dup6\n        /* \"#utility.yul\":7234:7256   */\n      add\n        /* \"#utility.yul\":7203:7266   */\n      tag_168\n      jump\t// in\n    tag_280:\n        /* \"#utility.yul\":7193:7266   */\n      swap2\n      pop\n        /* \"#utility.yul\":6989:7276   */\n      pop\n        /* \"#utility.yul\":6774:7283   */\n      swap3\n      swap2\n      pop\n      pop\n      jump\t// out\n        /* \"#utility.yul\":7289:7466   */\n    tag_169:\n        /* \"#utility.yul\":7429:7458   */\n      0x4f6e6c79206f776e65722063616e206578656375746520746869730000000000\n        /* \"#utility.yul\":7425:7426   */\n      0x00\n        /* \"#utility.yul\":7417:7423   */\n      dup3\n        /* \"#utility.yul\":7413:7427   */\n      add\n        /* \"#utility.yul\":7406:7459   */\n      mstore\n        /* \"#utility.yul\":7289:7466   */\n      pop\n      jump\t// out\n        /* \"#utility.yul\":7472:7838   */\n    tag_170:\n        /* \"#utility.yul\":7614:7617   */\n      0x00\n        /* \"#utility.yul\":7635:7702   */\n      tag_283\n        /* \"#utility.yul\":7699:7701   */\n      0x1b\n        /* \"#utility.yul\":7694:7697   */\n      dup4\n        /* \"#utility.yul\":7635:7702   */\n      tag_156\n      jump\t// in\n    tag_283:\n        /* \"#utility.yul\":7628:7702   */\n      swap2\n      pop\n        /* \"#utility.yul\":7711:7804   */\n      tag_284\n        /* \"#utility.yul\":7800:7803   */\n      dup3\n        /* \"#utility.yul\":7711:7804   */\n      tag_169\n      jump\t// in\n    tag_284:\n        /* \"#utility.yul\":7829:7831   */\n      0x20\n        /* \"#utility.yul\":7824:7827   */\n      dup3\n        /* \"#utility.yul\":7820:7832   */\n      add\n        /* \"#utility.yul\":7813:7832   */\n      swap1\n      pop\n        /* \"#utility.yul\":7472:7838   */\n      swap2\n      swap1\n      pop\n      jump\t// out\n        /* \"#utility.yul\":7844:8263   */\n    tag_83:\n        /* \"#utility.yul\":8010:8014   */\n      0x00\n        /* \"#utility.yul\":8048:8050   */\n      0x20\n        /* \"#utility.yul\":8037:8046   */\n      dup3\n        /* \"#utility.yul\":8033:8051   */\n      add\n        /* \"#utility.yul\":8025:8051   */\n      swap1\n      pop\n        /* \"#utility.yul\":8097:8106   */\n      dup2\n        /* \"#utility.yul\":8091:8095   */\n      dup2\n        /* \"#utility.yul\":8087:8107   */\n      sub\n        /* \"#utility.yul\":8083:8084   */\n      0x00\n        /* \"#utility.yul\":8072:8081   */\n      dup4\n        /* \"#utility.yul\":8068:8085   */\n      add\n        /* \"#utility.yul\":8061:8108   */\n      mstore\n        /* \"#utility.yul\":8125:8256   */\n      tag_286\n        /* \"#utility.yul\":8251:8255   */\n      dup2\n        /* \"#utility.yul\":8125:8256   */\n      tag_170\n      jump\t// in\n    tag_286:\n        /* \"#utility.yul\":8117:8256   */\n      swap1\n      pop\n        /* \"#utility.yul\":7844:8263   */\n      swap2\n      swap1\n      pop\n      jump\t// out\n        /* \"#utility.yul\":8269:8438   */\n    tag_171:\n        /* \"#utility.yul\":8409:8430   */\n      0x55736572206e6f74207265676973746572656400000000000000000000000000\n        /* \"#utility.yul\":8405:8406   */\n      0x00\n        /* \"#utility.yul\":8397:8403   */\n      dup3\n        /* \"#utility.yul\":8393:8407   */\n      add\n        /* \"#utility.yul\":8386:8431   */\n      mstore\n        /* \"#utility.yul\":8269:8438   */\n      pop\n      jump\t// out\n        /* \"#utility.yul\":8444:8810   */\n    tag_172:\n        /* \"#utility.yul\":8586:8589   */\n      0x00\n        /* \"#utility.yul\":8607:8674   */\n      tag_289\n        /* \"#utility.yul\":8671:8673   */\n      0x13\n        /* \"#utility.yul\":8666:8669   */\n      dup4\n        /* \"#utility.yul\":8607:8674   */\n      tag_156\n      jump\t// in\n    tag_289:\n        /* \"#utility.yul\":8600:8674   */\n      swap2\n      pop\n        /* \"#utility.yul\":8683:8776   */\n      tag_290\n        /* \"#utility.yul\":8772:8775   */\n      dup3\n        /* \"#utility.yul\":8683:8776   */\n      tag_171\n      jump\t// in\n    tag_290:\n        /* \"#utility.yul\":8801:8803   */\n      0x20\n        /* \"#utility.yul\":8796:8799   */\n      dup3\n        /* \"#utility.yul\":8792:8804   */\n      add\n        /* \"#utility.yul\":8785:8804   */\n      swap1\n      pop\n        /* \"#utility.yul\":8444:8810   */\n      swap2\n      swap1\n      pop\n      jump\t// out\n        /* \"#utility.yul\":8816:9235   */\n    tag_88:\n        /* \"#utility.yul\":8982:8986   */\n      0x00\n        /* \"#utility.yul\":9020:9022   */\n      0x20\n        /* \"#utility.yul\":9009:9018   */\n      dup3\n        /* \"#utility.yul\":9005:9023   */\n      add\n        /* \"#utility.yul\":8997:9023   */\n      swap1\n      pop\n        /* \"#utility.yul\":9069:9078   */\n      dup2\n        /* \"#utility.yul\":9063:9067   */\n      dup2\n        /* \"#utility.yul\":9059:9079   */\n      sub\n        /* \"#utility.yul\":9055:9056   */\n      0x00\n        /* \"#utility.yul\":9044:9053   */\n      dup4\n        /* \"#utility.yul\":9040:9057   */\n      add\n        /* \"#utility.yul\":9033:9080   */\n      mstore\n        /* \"#utility.yul\":9097:9228   */\n      tag_292\n        /* \"#utility.yul\":9223:9227   */\n      dup2\n        /* \"#utility.yul\":9097:9228   */\n      tag_172\n      jump\t// in\n    tag_292:\n        /* \"#utility.yul\":9089:9228   */\n      swap1\n      pop\n        /* \"#utility.yul\":8816:9235   */\n      swap2\n      swap1\n      pop\n      jump\t// out\n        /* \"#utility.yul\":9241:9413   */\n    tag_173:\n        /* \"#utility.yul\":9381:9405   */\n      0x43726561746f72206e6f74207265676973746572656400000000000000000000\n        /* \"#utility.yul\":9377:9378   */\n      0x00\n        /* \"#utility.yul\":9369:9375   */\n      dup3\n        /* \"#utility.yul\":9365:9379   */\n      add\n        /* \"#utility.yul\":9358:9406   */\n      mstore\n        /* \"#utility.yul\":9241:9413   */\n      pop\n      jump\t// out\n        /* \"#utility.yul\":9419:9785   */\n    tag_174:\n        /* \"#utility.yul\":9561:9564   */\n      0x00\n        /* \"#utility.yul\":9582:9649   */\n      tag_295\n        /* \"#utility.yul\":9646:9648   */\n      0x16\n        /* \"#utility.yul\":9641:9644   */\n      dup4\n        /* \"#utility.yul\":9582:9649   */\n      tag_156\n      jump\t// in\n    tag_295:\n        /* \"#utility.yul\":9575:9649   */\n      swap2\n      pop\n        /* \"#utility.yul\":9658:9751   */\n      tag_296\n        /* \"#utility.yul\":9747:9750   */\n      dup3\n        /* \"#utility.yul\":9658:9751   */\n      tag_173\n      jump\t// in\n    tag_296:\n        /* \"#utility.yul\":9776:9778   */\n      0x20\n        /* \"#utility.yul\":9771:9774   */\n      dup3\n        /* \"#utility.yul\":9767:9779   */\n      add\n        /* \"#utility.yul\":9760:9779   */\n      swap1\n      pop\n        /* \"#utility.yul\":9419:9785   */\n      swap2\n      swap1\n      pop\n      jump\t// out\n        /* \"#utility.yul\":9791:10210   */\n    tag_92:\n        /* \"#utility.yul\":9957:9961   */\n      0x00\n        /* \"#utility.yul\":9995:9997   */\n      0x20\n        /* \"#utility.yul\":9984:9993   */\n      dup3\n        /* \"#utility.yul\":9980:9998   */\n      add\n        /* \"#utility.yul\":9972:9998   */\n      swap1\n      pop\n        /* \"#utility.yul\":10044:10053   */\n      dup2\n        /* \"#utility.yul\":10038:10042   */\n      dup2\n        /* \"#utility.yul\":10034:10054   */\n      sub\n        /* \"#utility.yul\":10030:10031   */\n      0x00\n        /* \"#utility.yul\":10019:10028   */\n      dup4\n        /* \"#utility.yul\":10015:10032   */\n      add\n        /* \"#utility.yul\":10008:10055   */\n      mstore\n        /* \"#utility.yul\":10072:10203   */\n      tag_298\n        /* \"#utility.yul\":10198:10202   */\n      dup2\n        /* \"#utility.yul\":10072:10203   */\n      tag_174\n      jump\t// in\n    tag_298:\n        /* \"#utility.yul\":10064:10203   */\n      swap1\n      pop\n        /* \"#utility.yul\":9791:10210   */\n      swap2\n      swap1\n      pop\n      jump\t// out\n        /* \"#utility.yul\":10216:10396   */\n    tag_175:\n        /* \"#utility.yul\":10264:10341   */\n      0x4e487b7100000000000000000000000000000000000000000000000000000000\n        /* \"#utility.yul\":10261:10262   */\n      0x00\n        /* \"#utility.yul\":10254:10342   */\n      mstore\n        /* \"#utility.yul\":10361:10365   */\n      0x11\n        /* \"#utility.yul\":10358:10359   */\n      0x04\n        /* \"#utility.yul\":10351:10366   */\n      mstore\n        /* \"#utility.yul\":10385:10389   */\n      0x24\n        /* \"#utility.yul\":10382:10383   */\n      0x00\n        /* \"#utility.yul\":10375:10390   */\n      revert\n        /* \"#utility.yul\":10402:10635   */\n    tag_94:\n        /* \"#utility.yul\":10441:10444   */\n      0x00\n        /* \"#utility.yul\":10464:10488   */\n      tag_301\n        /* \"#utility.yul\":10482:10487   */\n      dup3\n        /* \"#utility.yul\":10464:10488   */\n      tag_144\n      jump\t// in\n    tag_301:\n        /* \"#utility.yul\":10455:10488   */\n      swap2\n      pop\n        /* \"#utility.yul\":10510:10576   */\n      0xffffffffffffffffffffffffffffffffffffffffffffffffffffffffffffffff\n        /* \"#utility.yul\":10503:10508   */\n      dup3\n        /* \"#utility.yul\":10500:10577   */\n      sub\n        /* \"#utility.yul\":10497:10600   */\n      tag_302\n      jumpi\n        /* \"#utility.yul\":10580:10598   */\n      tag_303\n      tag_175\n      jump\t// in\n    tag_303:\n        /* \"#utility.yul\":10497:10600   */\n    tag_302:\n        /* \"#utility.yul\":10627:10628   */\n      0x01\n        /* \"#utility.yul\":10620:10625   */\n      dup3\n        /* \"#utility.yul\":10616:10629   */\n      add\n        /* \"#utility.yul\":10609:10629   */\n      swap1\n      pop\n        /* \"#utility.yul\":10402:10635   */\n      swap2\n      swap1\n      pop\n      jump\t// out\n        /* \"#utility.yul\":10641:10814   */\n    tag_176:\n        /* \"#utility.yul\":10781:10806   */\n      0x5573657220616c72656164792072656769737465726564000000000000000000\n        /* \"#utility.yul\":10777:10778   */\n      0x00\n        /* \"#utility.yul\":10769:10775   */\n      dup3\n        /* \"#utility.yul\":10765:10779   */\n      add\n        /* \"#utility.yul\":10758:10807   */\n      mstore\n        /* \"#utility.yul\":10641:10814   */\n      pop\n      jump\t// out\n        /* \"#utility.yul\":10820:11186   */\n    tag_177:\n        /* \"#utility.yul\":10962:10965   */\n      0x00\n        /* \"#utility.yul\":10983:11050   */\n      tag_306\n        /* \"#utility.yul\":11047:11049   */\n      0x17\n        /* \"#utility.yul\":11042:11045   */\n      dup4\n        /* \"#utility.yul\":10983:11050   */\n      tag_156\n      jump\t// in\n    tag_306:\n        /* \"#utility.yul\":10976:11050   */\n      swap2\n      pop\n        /* \"#utility.yul\":11059:11152   */\n      tag_307\n        /* \"#utility.yul\":11148:11151   */\n      dup3\n        /* \"#utility.yul\":11059:11152   */\n      tag_176\n      jump\t// in\n    tag_307:\n        /* \"#utility.yul\":11177:11179   */\n      0x20\n        /* \"#utility.yul\":11172:11175   */\n      dup3\n        /* \"#utility.yul\":11168:11180   */\n      add\n        /* \"#utility.yul\":11161:11180   */\n      swap1\n      pop\n        /* \"#utility.yul\":10820:11186   */\n      swap2\n      swap1\n      pop\n      jump\t// out\n        /* \"#utility.yul\":11192:11611   */\n    tag_101:\n        /* \"#utility.yul\":11358:11362   */\n      0x00\n        /* \"#utility.yul\":11396:11398   */\n      0x20\n        /* \"#utility.yul\":11385:11394   */\n      dup3\n        /* \"#utility.yul\":11381:11399   */\n      add\n        /* \"#utility.yul\":11373:11399   */\n      swap1\n      pop\n        /* \"#utility.yul\":11445:11454   */\n      dup2\n        /* \"#utility.yul\":11439:11443   */\n      dup2\n        /* \"#utility.yul\":11435:11455   */\n      sub\n        /* \"#utility.yul\":11431:11432   */\n      0x00\n        /* \"#utility.yul\":11420:11429   */\n      dup4\n        /* \"#utility.yul\":11416:11433   */\n      add\n        /* \"#utility.yul\":11409:11456   */\n      mstore\n        /* \"#utility.yul\":11473:11604   */\n      tag_309\n        /* \"#utility.yul\":11599:11603   */\n      dup2\n        /* \"#utility.yul\":11473:11604   */\n      tag_177\n      jump\t// in\n    tag_309:\n        /* \"#utility.yul\":11465:11604   */\n      swap1\n      pop\n        /* \"#utility.yul\":11192:11611   */\n      swap2\n      swap1\n      pop\n      jump\t// out\n        /* \"#utility.yul\":11617:11797   */\n    tag_178:\n        /* \"#utility.yul\":11665:11742   */\n      0x4e487b7100000000000000000000000000000000000000000000000000000000\n        /* \"#utility.yul\":11662:11663   */\n      0x00\n        /* \"#utility.yul\":11655:11743   */\n      mstore\n        /* \"#utility.yul\":11762:11766   */\n      0x22\n        /* \"#utility.yul\":11759:11760   */\n      0x04\n        /* \"#utility.yul\":11752:11767   */\n      mstore\n        /* \"#utility.yul\":11786:11790   */\n      0x24\n        /* \"#utility.yul\":11783:11784   */\n      0x00\n        /* \"#utility.yul\":11776:11791   */\n      revert\n        /* \"#utility.yul\":11803:12123   */\n    tag_110:\n        /* \"#utility.yul\":11847:11853   */\n      0x00\n        /* \"#utility.yul\":11884:11885   */\n      0x02\n        /* \"#utility.yul\":11878:11882   */\n      dup3\n        /* \"#utility.yul\":11874:11886   */\n      div\n        /* \"#utility.yul\":11864:11886   */\n      swap1\n      pop\n        /* \"#utility.yul\":11931:11932   */\n      0x01\n        /* \"#utility.yul\":11925:11929   */\n      dup3\n        /* \"#utility.yul\":11921:11933   */\n      and\n        /* \"#utility.yul\":11952:11970   */\n      dup1\n        /* \"#utility.yul\":11942:12023   */\n      tag_312\n      jumpi\n        /* \"#utility.yul\":12008:12012   */\n      0x7f\n        /* \"#utility.yul\":12000:12006   */\n      dup3\n        /* \"#utility.yul\":11996:12013   */\n      and\n        /* \"#utility.yul\":11986:12013   */\n      swap2\n      pop\n        /* \"#utility.yul\":11942:12023   */\n    tag_312:\n        /* \"#utility.yul\":12070:12072   */\n      0x20\n        /* \"#utility.yul\":12062:12068   */\n      dup3\n        /* \"#utility.yul\":12059:12073   */\n      lt\n        /* \"#utility.yul\":12039:12057   */\n      dup2\n        /* \"#utility.yul\":12036:12074   */\n      sub\n        /* \"#utility.yul\":12033:12117   */\n      tag_313\n      jumpi\n        /* \"#utility.yul\":12089:12107   */\n      tag_314\n      tag_178\n      jump\t// in\n    tag_314:\n        /* \"#utility.yul\":12033:12117   */\n    tag_313:\n        /* \"#utility.yul\":11854:12123   */\n      pop\n        /* \"#utility.yul\":11803:12123   */\n      swap2\n      swap1\n      pop\n      jump\t// out\n        /* \"#utility.yul\":12129:12270   */\n    tag_179:\n        /* \"#utility.yul\":12178:12182   */\n      0x00\n        /* \"#utility.yul\":12201:12204   */\n      dup2\n        /* \"#utility.yul\":12193:12204   */\n      swap1\n      pop\n        /* \"#utility.yul\":12224:12227   */\n      dup2\n        /* \"#utility.yul\":12221:12222   */\n      0x00\n        /* \"#utility.yul\":12214:12228   */\n      mstore\n        /* \"#utility.yul\":12258:12262   */\n      0x20\n        /* \"#utility.yul\":12255:12256   */\n      0x00\n        /* \"#utility.yul\":12245:12263   */\n      keccak256\n        /* \"#utility.yul\":12237:12263   */\n      swap1\n      pop\n        /* \"#utility.yul\":12129:12270   */\n      swap2\n      swap1\n      pop\n      jump\t// out\n        /* \"#utility.yul\":12276:12369   */\n    tag_180:\n        /* \"#utility.yul\":12313:12319   */\n      0x00\n        /* \"#utility.yul\":12360:12362   */\n      0x20\n        /* \"#utility.yul\":12355:12357   */\n      0x1f\n        /* \"#utility.yul\":12348:12353   */\n      dup4\n        /* \"#utility.yul\":12344:12358   */\n      add\n        /* \"#utility.yul\":12340:12363   */\n      div\n        /* \"#utility.yul\":12330:12363   */\n      swap1\n      pop\n        /* \"#utility.yul\":12276:12369   */\n      swap2\n      swap1\n      pop\n      jump\t// out\n        /* \"#utility.yul\":12375:12482   */\n    tag_181:\n        /* \"#utility.yul\":12419:12427   */\n      0x00\n        /* \"#utility.yul\":12469:12474   */\n      dup3\n        /* \"#utility.yul\":12463:12467   */\n      dup3\n        /* \"#utility.yul\":12459:12475   */\n      shl\n        /* \"#utility.yul\":12438:12475   */\n      swap1\n      pop\n        /* \"#utility.yul\":12375:12482   */\n      swap3\n      swap2\n      pop\n      pop\n      jump\t// out\n        /* \"#utility.yul\":12488:12881   */\n    tag_182:\n        /* \"#utility.yul\":12557:12563   */\n      0x00\n        /* \"#utility.yul\":12607:12608   */\n      0x08\n        /* \"#utility.yul\":12595:12605   */\n      dup4\n        /* \"#utility.yul\":12591:12609   */\n      mul\n        /* \"#utility.yul\":12630:12727   */\n      tag_319\n        /* \"#utility.yul\":12660:12726   */\n      0xffffffffffffffffffffffffffffffffffffffffffffffffffffffffffffffff\n        /* \"#utility.yul\":12649:12658   */\n      dup3\n        /* \"#utility.yul\":12630:12727   */\n      tag_181\n      jump\t// in\n    tag_319:\n        /* \"#utility.yul\":12748:12787   */\n      tag_320\n        /* \"#utility.yul\":12778:12786   */\n      dup7\n        /* \"#utility.yul\":12767:12776   */\n      dup4\n        /* \"#utility.yul\":12748:12787   */\n      tag_181\n      jump\t// in\n    tag_320:\n        /* \"#utility.yul\":12736:12787   */\n      swap6\n      pop\n        /* \"#utility.yul\":12820:12824   */\n      dup1\n        /* \"#utility.yul\":12816:12825   */\n      not\n        /* \"#utility.yul\":12809:12814   */\n      dup5\n        /* \"#utility.yul\":12805:12826   */\n      and\n        /* \"#utility.yul\":12796:12826   */\n      swap4\n      pop\n        /* \"#utility.yul\":12869:12873   */\n      dup1\n        /* \"#utility.yul\":12859:12867   */\n      dup7\n        /* \"#utility.yul\":12855:12874   */\n      and\n        /* \"#utility.yul\":12848:12853   */\n      dup5\n        /* \"#utility.yul\":12845:12875   */\n      or\n        /* \"#utility.yul\":12835:12875   */\n      swap3\n      pop\n        /* \"#utility.yul\":12564:12881   */\n      pop\n      pop\n        /* \"#utility.yul\":12488:12881   */\n      swap4\n      swap3\n      pop\n      pop\n      pop\n      jump\t// out\n        /* \"#utility.yul\":12887:12947   */\n    tag_183:\n        /* \"#utility.yul\":12915:12918   */\n      0x00\n        /* \"#utility.yul\":12936:12941   */\n      dup2\n        /* \"#utility.yul\":12929:12941   */\n      swap1\n      pop\n        /* \"#utility.yul\":12887:12947   */\n      swap2\n      swap1\n      pop\n      jump\t// out\n        /* \"#utility.yul\":12953:13095   */\n    tag_184:\n        /* \"#utility.yul\":13003:13012   */\n      0x00\n        /* \"#utility.yul\":13036:13089   */\n      tag_323\n        /* \"#utility.yul\":13054:13088   */\n      tag_324\n        /* \"#utility.yul\":13063:13087   */\n      tag_325\n        /* \"#utility.yul\":13081:13086   */\n      dup5\n        /* \"#utility.yul\":13063:13087   */\n      tag_144\n      jump\t// in\n    tag_325:\n        /* \"#utility.yul\":13054:13088   */\n      tag_183\n      jump\t// in\n    tag_324:\n        /* \"#utility.yul\":13036:13089   */\n      tag_144\n      jump\t// in\n    tag_323:\n        /* \"#utility.yul\":13023:13089   */\n      swap1\n      pop\n        /* \"#utility.yul\":12953:13095   */\n      swap2\n      swap1\n      pop\n      jump\t// out\n        /* \"#utility.yul\":13101:13176   */\n    tag_185:\n        /* \"#utility.yul\":13144:13147   */\n      0x00\n        /* \"#utility.yul\":13165:13170   */\n      dup2\n        /* \"#utility.yul\":13158:13170   */\n      swap1\n      pop\n        /* \"#utility.yul\":13101:13176   */\n      swap2\n      swap1\n      pop\n      jump\t// out\n        /* \"#utility.yul\":13182:13451   */\n    tag_186:\n        /* \"#utility.yul\":13292:13331   */\n      tag_328\n        /* \"#utility.yul\":13323:13330   */\n      dup4\n        /* \"#utility.yul\":13292:13331   */\n      tag_184\n      jump\t// in\n    tag_328:\n        /* \"#utility.yul\":13353:13444   */\n      tag_329\n        /* \"#utility.yul\":13402:13443   */\n      tag_330\n        /* \"#utility.yul\":13426:13442   */\n      dup3\n        /* \"#utility.yul\":13402:13443   */\n      tag_185\n      jump\t// in\n    tag_330:\n        /* \"#utility.yul\":13394:13400   */\n      dup5\n        /* \"#utility.yul\":13387:13391   */\n      dup5\n        /* \"#utility.yul\":13381:13392   */\n      sload\n        /* \"#utility.yul\":13353:13444   */\n      tag_182\n      jump\t// in\n    tag_329:\n        /* \"#utility.yul\":13347:13351   */\n      dup3\n        /* \"#utility.yul\":13340:13445   */\n      sstore\n        /* \"#utility.yul\":13258:13451   */\n      pop\n        /* \"#utility.yul\":13182:13451   */\n      pop\n      pop\n      pop\n      jump\t// out\n        /* \"#utility.yul\":13457:13530   */\n    tag_187:\n        /* \"#utility.yul\":13502:13505   */\n      0x00\n        /* \"#utility.yul\":13523:13524   */\n      0x00\n        /* \"#utility.yul\":13516:13524   */\n      swap1\n      pop\n        /* \"#utility.yul\":13457:13530   */\n      swap1\n      jump\t// out\n        /* \"#utility.yul\":13536:13725   */\n    tag_188:\n        /* \"#utility.yul\":13613:13645   */\n      tag_333\n      tag_187\n      jump\t// in\n    tag_333:\n        /* \"#utility.yul\":13654:13719   */\n      tag_334\n        /* \"#utility.yul\":13712:13718   */\n      dup2\n        /* \"#utility.yul\":13704:13710   */\n      dup5\n        /* \"#utility.yul\":13698:13702   */\n      dup5\n        /* \"#utility.yul\":13654:13719   */\n      tag_186\n      jump\t// in\n    tag_334:\n        /* \"#utility.yul\":13589:13725   */\n      pop\n        /* \"#utility.yul\":13536:13725   */\n      pop\n      pop\n      jump\t// out\n        /* \"#utility.yul\":13731:13917   */\n    tag_189:\n        /* \"#utility.yul\":13791:13911   */\n    tag_336:\n        /* \"#utility.yul\":13808:13811   */\n      dup2\n        /* \"#utility.yul\":13801:13806   */\n      dup2\n        /* \"#utility.yul\":13798:13812   */\n      lt\n        /* \"#utility.yul\":13791:13911   */\n      iszero\n      tag_338\n      jumpi\n        /* \"#utility.yul\":13862:13901   */\n      tag_339\n        /* \"#utility.yul\":13899:13900   */\n      0x00\n        /* \"#utility.yul\":13892:13897   */\n      dup3\n        /* \"#utility.yul\":13862:13901   */\n      tag_188\n      jump\t// in\n    tag_339:\n        /* \"#utility.yul\":13835:13836   */\n      0x01\n        /* \"#utility.yul\":13828:13833   */\n      dup2\n        /* \"#utility.yul\":13824:13837   */\n      add\n        /* \"#utility.yul\":13815:13837   */\n      swap1\n      pop\n        /* \"#utility.yul\":13791:13911   */\n      jump(tag_336)\n    tag_338:\n        /* \"#utility.yul\":13731:13917   */\n      pop\n      pop\n      jump\t// out\n        /* \"#utility.yul\":13923:14466   */\n    tag_190:\n        /* \"#utility.yul\":14024:14026   */\n      0x1f\n        /* \"#utility.yul\":14019:14022   */\n      dup3\n        /* \"#utility.yul\":14016:14027   */\n      gt\n        /* \"#utility.yul\":14013:14459   */\n      iszero\n      tag_341\n      jumpi\n        /* \"#utility.yul\":14058:14096   */\n      tag_342\n        /* \"#utility.yul\":14090:14095   */\n      dup2\n        /* \"#utility.yul\":14058:14096   */\n      tag_179\n      jump\t// in\n    tag_342:\n        /* \"#utility.yul\":14142:14171   */\n      tag_343\n        /* \"#utility.yul\":14160:14170   */\n      dup5\n        /* \"#utility.yul\":14142:14171   */\n      tag_180\n      jump\t// in\n    tag_343:\n        /* \"#utility.yul\":14132:14140   */\n      dup2\n        /* \"#utility.yul\":14128:14172   */\n      add\n        /* \"#utility.yul\":14325:14327   */\n      0x20\n        /* \"#utility.yul\":14313:14323   */\n      dup6\n        /* \"#utility.yul\":14310:14328   */\n      lt\n        /* \"#utility.yul\":14307:14356   */\n      iszero\n      tag_344\n      jumpi\n        /* \"#utility.yul\":14346:14354   */\n      dup2\n        /* \"#utility.yul\":14331:14354   */\n      swap1\n      pop\n        /* \"#utility.yul\":14307:14356   */\n    tag_344:\n        /* \"#utility.yul\":14369:14449   */\n      tag_345\n        /* \"#utility.yul\":14425:14447   */\n      tag_346\n        /* \"#utility.yul\":14443:14446   */\n      dup6\n        /* \"#utility.yul\":14425:14447   */\n      tag_180\n      jump\t// in\n    tag_346:\n        /* \"#utility.yul\":14415:14423   */\n      dup4\n        /* \"#utility.yul\":14411:14448   */\n      add\n        /* \"#utility.yul\":14398:14409   */\n      dup3\n        /* \"#utility.yul\":14369:14449   */\n      tag_189\n      jump\t// in\n    tag_345:\n        /* \"#utility.yul\":14028:14459   */\n      pop\n      pop\n        /* \"#utility.yul\":14013:14459   */\n    tag_341:\n        /* \"#utility.yul\":13923:14466   */\n      pop\n      pop\n      pop\n      jump\t// out\n        /* \"#utility.yul\":14472:14589   */\n    tag_191:\n        /* \"#utility.yul\":14526:14534   */\n      0x00\n        /* \"#utility.yul\":14576:14581   */\n      dup3\n        /* \"#utility.yul\":14570:14574   */\n      dup3\n        /* \"#utility.yul\":14566:14582   */\n      shr\n        /* \"#utility.yul\":14545:14582   */\n      swap1\n      pop\n        /* \"#utility.yul\":14472:14589   */\n      swap3\n      swap2\n      pop\n      pop\n      jump\t// out\n        /* \"#utility.yul\":14595:14764   */\n    tag_192:\n        /* \"#utility.yul\":14639:14645   */\n      0x00\n        /* \"#utility.yul\":14672:14723   */\n      tag_349\n        /* \"#utility.yul\":14720:14721   */\n      0x00\n        /* \"#utility.yul\":14716:14722   */\n      not\n        /* \"#utility.yul\":14708:14713   */\n      dup5\n        /* \"#utility.yul\":14705:14706   */\n      0x08\n        /* \"#utility.yul\":14701:14714   */\n      mul\n        /* \"#utility.yul\":14672:14723   */\n      tag_191\n      jump\t// in\n    tag_349:\n        /* \"#utility.yul\":14668:14724   */\n      not\n        /* \"#utility.yul\":14753:14757   */\n      dup1\n        /* \"#utility.yul\":14747:14751   */\n      dup4\n        /* \"#utility.yul\":14743:14758   */\n      and\n        /* \"#utility.yul\":14733:14758   */\n      swap2\n      pop\n        /* \"#utility.yul\":14646:14764   */\n      pop\n        /* \"#utility.yul\":14595:14764   */\n      swap3\n      swap2\n      pop\n      pop\n      jump\t// out\n        /* \"#utility.yul\":14769:15064   */\n    tag_193:\n        /* \"#utility.yul\":14845:14849   */\n      0x00\n        /* \"#utility.yul\":14991:15020   */\n      tag_351\n        /* \"#utility.yul\":15016:15019   */\n      dup4\n        /* \"#utility.yul\":15010:15014   */\n      dup4\n        /* \"#utility.yul\":14991:15020   */\n      tag_192\n      jump\t// in\n    tag_351:\n        /* \"#utility.yul\":14983:15020   */\n      swap2\n      pop\n        /* \"#utility.yul\":15053:15056   */\n      dup3\n        /* \"#utility.yul\":15050:15051   */\n      0x02\n        /* \"#utility.yul\":15046:15057   */\n      mul\n        /* \"#utility.yul\":15040:15044   */\n      dup3\n        /* \"#utility.yul\":15037:15058   */\n      or\n        /* \"#utility.yul\":15029:15058   */\n      swap1\n      pop\n        /* \"#utility.yul\":14769:15064   */\n      swap3\n      swap2\n      pop\n      pop\n      jump\t// out\n        /* \"#utility.yul\":15069:16464   */\n    tag_124:\n        /* \"#utility.yul\":15186:15223   */\n      tag_353\n        /* \"#utility.yul\":15219:15222   */\n      dup3\n        /* \"#utility.yul\":15186:15223   */\n      tag_155\n      jump\t// in\n    tag_353:\n        /* \"#utility.yul\":15288:15306   */\n      0xffffffffffffffff\n        /* \"#utility.yul\":15280:15286   */\n      dup2\n        /* \"#utility.yul\":15277:15307   */\n      gt\n        /* \"#utility.yul\":15274:15330   */\n      iszero\n      tag_354\n      jumpi\n        /* \"#utility.yul\":15310:15328   */\n      tag_355\n      tag_162\n      jump\t// in\n    tag_355:\n        /* \"#utility.yul\":15274:15330   */\n    tag_354:\n        /* \"#utility.yul\":15354:15392   */\n      tag_356\n        /* \"#utility.yul\":15386:15390   */\n      dup3\n        /* \"#utility.yul\":15380:15391   */\n      sload\n        /* \"#utility.yul\":15354:15392   */\n      tag_110\n      jump\t// in\n    tag_356:\n        /* \"#utility.yul\":15439:15506   */\n      tag_357\n        /* \"#utility.yul\":15499:15505   */\n      dup3\n        /* \"#utility.yul\":15491:15497   */\n      dup3\n        /* \"#utility.yul\":15485:15489   */\n      dup6\n        /* \"#utility.yul\":15439:15506   */\n      tag_190\n      jump\t// in\n    tag_357:\n        /* \"#utility.yul\":15533:15534   */\n      0x00\n        /* \"#utility.yul\":15557:15561   */\n      0x20\n        /* \"#utility.yul\":15544:15561   */\n      swap1\n      pop\n        /* \"#utility.yul\":15589:15591   */\n      0x1f\n        /* \"#utility.yul\":15581:15587   */\n      dup4\n        /* \"#utility.yul\":15578:15592   */\n      gt\n        /* \"#utility.yul\":15606:15607   */\n      0x01\n        /* \"#utility.yul\":15601:16219   */\n      dup2\n      eq\n      tag_359\n      jumpi\n        /* \"#utility.yul\":16263:16264   */\n      0x00\n        /* \"#utility.yul\":16280:16286   */\n      dup5\n        /* \"#utility.yul\":16277:16354   */\n      iszero\n      tag_360\n      jumpi\n        /* \"#utility.yul\":16329:16338   */\n      dup3\n        /* \"#utility.yul\":16324:16327   */\n      dup8\n        /* \"#utility.yul\":16320:16339   */\n      add\n        /* \"#utility.yul\":16314:16340   */\n      mload\n        /* \"#utility.yul\":16305:16340   */\n      swap1\n      pop\n        /* \"#utility.yul\":16277:16354   */\n    tag_360:\n        /* \"#utility.yul\":16380:16447   */\n      tag_361\n        /* \"#utility.yul\":16440:16446   */\n      dup6\n        /* \"#utility.yul\":16433:16438   */\n      dup3\n        /* \"#utility.yul\":16380:16447   */\n      tag_193\n      jump\t// in\n    tag_361:\n        /* \"#utility.yul\":16374:16378   */\n      dup7\n        /* \"#utility.yul\":16367:16448   */\n      sstore\n        /* \"#utility.yul\":16236:16458   */\n      pop\n        /* \"#utility.yul\":15571:16458   */\n      jump(tag_358)\n        /* \"#utility.yul\":15601:16219   */\n    tag_359:\n        /* \"#utility.yul\":15653:15657   */\n      0x1f\n        /* \"#utility.yul\":15649:15658   */\n      not\n        /* \"#utility.yul\":15641:15647   */\n      dup5\n        /* \"#utility.yul\":15637:15659   */\n      and\n        /* \"#utility.yul\":15687:15724   */\n      tag_362\n        /* \"#utility.yul\":15719:15723   */\n      dup7\n        /* \"#utility.yul\":15687:15724   */\n      tag_179\n      jump\t// in\n    tag_362:\n        /* \"#utility.yul\":15746:15747   */\n      0x00\n        /* \"#utility.yul\":15760:15968   */\n    tag_363:\n        /* \"#utility.yul\":15774:15781   */\n      dup3\n        /* \"#utility.yul\":15771:15772   */\n      dup2\n        /* \"#utility.yul\":15768:15782   */\n      lt\n        /* \"#utility.yul\":15760:15968   */\n      iszero\n      tag_365\n      jumpi\n        /* \"#utility.yul\":15853:15862   */\n      dup5\n        /* \"#utility.yul\":15848:15851   */\n      dup10\n        /* \"#utility.yul\":15844:15863   */\n      add\n        /* \"#utility.yul\":15838:15864   */\n      mload\n        /* \"#utility.yul\":15830:15836   */\n      dup3\n        /* \"#utility.yul\":15823:15865   */\n      sstore\n        /* \"#utility.yul\":15904:15905   */\n      0x01\n        /* \"#utility.yul\":15896:15902   */\n      dup3\n        /* \"#utility.yul\":15892:15906   */\n      add\n        /* \"#utility.yul\":15882:15906   */\n      swap2\n      pop\n        /* \"#utility.yul\":15951:15953   */\n      0x20\n        /* \"#utility.yul\":15940:15949   */\n      dup6\n        /* \"#utility.yul\":15936:15954   */\n      add\n        /* \"#utility.yul\":15923:15954   */\n      swap5\n      pop\n        /* \"#utility.yul\":15797:15801   */\n      0x20\n        /* \"#utility.yul\":15794:15795   */\n      dup2\n        /* \"#utility.yul\":15790:15802   */\n      add\n        /* \"#utility.yul\":15785:15802   */\n      swap1\n      pop\n        /* \"#utility.yul\":15760:15968   */\n      jump(tag_363)\n    tag_365:\n        /* \"#utility.yul\":15996:16002   */\n      dup7\n        /* \"#utility.yul\":15987:15994   */\n      dup4\n        /* \"#utility.yul\":15984:16003   */\n      lt\n        /* \"#utility.yul\":15981:16160   */\n      iszero\n      tag_366\n      jumpi\n        /* \"#utility.yul\":16054:16063   */\n      dup5\n        /* \"#utility.yul\":16049:16052   */\n      dup10\n        /* \"#utility.yul\":16045:16064   */\n      add\n        /* \"#utility.yul\":16039:16065   */\n      mload\n        /* \"#utility.yul\":16097:16145   */\n      tag_367\n        /* \"#utility.yul\":16139:16143   */\n      0x1f\n        /* \"#utility.yul\":16131:16137   */\n      dup10\n        /* \"#utility.yul\":16127:16144   */\n      and\n        /* \"#utility.yul\":16116:16125   */\n      dup3\n        /* \"#utility.yul\":16097:16145   */\n      tag_192\n      jump\t// in\n    tag_367:\n        /* \"#utility.yul\":16089:16095   */\n      dup4\n        /* \"#utility.yul\":16082:16146   */\n      sstore\n        /* \"#utility.yul\":16004:16160   */\n      pop\n        /* \"#utility.yul\":15981:16160   */\n    tag_366:\n        /* \"#utility.yul\":16206:16207   */\n      0x01\n        /* \"#utility.yul\":16202:16203   */\n      0x02\n        /* \"#utility.yul\":16194:16200   */\n      dup9\n        /* \"#utility.yul\":16190:16204   */\n      mul\n        /* \"#utility.yul\":16186:16208   */\n      add\n        /* \"#utility.yul\":16180:16184   */\n      dup9\n        /* \"#utility.yul\":16173:16209   */\n      sstore\n        /* \"#utility.yul\":15608:16219   */\n      pop\n      pop\n      pop\n        /* \"#utility.yul\":15571:16458   */\n    tag_358:\n      pop\n        /* \"#utility.yul\":15161:16464   */\n      pop\n      pop\n      pop\n        /* \"#utility.yul\":15069:16464   */\n      pop\n      pop\n      jump\t// out\n        /* \"#utility.yul\":16470:16664   */\n    tag_127:\n        /* \"#utility.yul\":16510:16514   */\n      0x00\n        /* \"#utility.yul\":16530:16550   */\n      tag_369\n        /* \"#utility.yul\":16548:16549   */\n      dup3\n        /* \"#utility.yul\":16530:16550   */\n      tag_144\n      jump\t// in\n    tag_369:\n        /* \"#utility.yul\":16525:16550   */\n      swap2\n      pop\n        /* \"#utility.yul\":16564:16584   */\n      tag_370\n        /* \"#utility.yul\":16582:16583   */\n      dup4\n        /* \"#utility.yul\":16564:16584   */\n      tag_144\n      jump\t// in\n    tag_370:\n        /* \"#utility.yul\":16559:16584   */\n      swap3\n      pop\n        /* \"#utility.yul\":16608:16609   */\n      dup3\n        /* \"#utility.yul\":16605:16606   */\n      dup3\n        /* \"#utility.yul\":16601:16610   */\n      sub\n        /* \"#utility.yul\":16593:16610   */\n      swap1\n      pop\n        /* \"#utility.yul\":16632:16633   */\n      dup2\n        /* \"#utility.yul\":16626:16630   */\n      dup2\n        /* \"#utility.yul\":16623:16634   */\n      gt\n        /* \"#utility.yul\":16620:16657   */\n      iszero\n      tag_371\n      jumpi\n        /* \"#utility.yul\":16637:16655   */\n      tag_372\n      tag_175\n      jump\t// in\n    tag_372:\n        /* \"#utility.yul\":16620:16657   */\n    tag_371:\n        /* \"#utility.yul\":16470:16664   */\n      swap3\n      swap2\n      pop\n      pop\n      jump\t// out\n        /* \"#utility.yul\":16670:17093   */\n    tag_129:\n        /* \"#utility.yul\":16811:16815   */\n      0x00\n        /* \"#utility.yul\":16849:16851   */\n      0x40\n        /* \"#utility.yul\":16838:16847   */\n      dup3\n        /* \"#utility.yul\":16834:16852   */\n      add\n        /* \"#utility.yul\":16826:16852   */\n      swap1\n      pop\n        /* \"#utility.yul\":16862:16933   */\n      tag_374\n        /* \"#utility.yul\":16930:16931   */\n      0x00\n        /* \"#utility.yul\":16919:16928   */\n      dup4\n        /* \"#utility.yul\":16915:16932   */\n      add\n        /* \"#utility.yul\":16906:16912   */\n      dup6\n        /* \"#utility.yul\":16862:16933   */\n      tag_151\n      jump\t// in\n    tag_374:\n        /* \"#utility.yul\":16980:16989   */\n      dup2\n        /* \"#utility.yul\":16974:16978   */\n      dup2\n        /* \"#utility.yul\":16970:16990   */\n      sub\n        /* \"#utility.yul\":16965:16967   */\n      0x20\n        /* \"#utility.yul\":16954:16963   */\n      dup4\n        /* \"#utility.yul\":16950:16968   */\n      add\n        /* \"#utility.yul\":16943:16991   */\n      mstore\n        /* \"#utility.yul\":17008:17086   */\n      tag_375\n        /* \"#utility.yul\":17081:17085   */\n      dup2\n        /* \"#utility.yul\":17072:17078   */\n      dup5\n        /* \"#utility.yul\":17008:17086   */\n      tag_159\n      jump\t// in\n    tag_375:\n        /* \"#utility.yul\":17000:17086   */\n      swap1\n      pop\n        /* \"#utility.yul\":16670:17093   */\n      swap4\n      swap3\n      pop\n      pop\n      pop\n      jump\t// out\n        /* \"#utility.yul\":17099:17278   */\n    tag_194:\n        /* \"#utility.yul\":17239:17270   */\n      0x496e73756666696369656e7420636f6e74726163742062616c616e6365000000\n        /* \"#utility.yul\":17235:17236   */\n      0x00\n        /* \"#utility.yul\":17227:17233   */\n      dup3\n        /* \"#utility.yul\":17223:17237   */\n      add\n        /* \"#utility.yul\":17216:17271   */\n      mstore\n        /* \"#utility.yul\":17099:17278   */\n      pop\n      jump\t// out\n        /* \"#utility.yul\":17284:17650   */\n    tag_195:\n        /* \"#utility.yul\":17426:17429   */\n      0x00\n        /* \"#utility.yul\":17447:17514   */\n      tag_378\n        /* \"#utility.yul\":17511:17513   */\n      0x1d\n        /* \"#utility.yul\":17506:17509   */\n      dup4\n        /* \"#utility.yul\":17447:17514   */\n      tag_156\n      jump\t// in\n    tag_378:\n        /* \"#utility.yul\":17440:17514   */\n      swap2\n      pop\n        /* \"#utility.yul\":17523:17616   */\n      tag_379\n        /* \"#utility.yul\":17612:17615   */\n      dup3\n        /* \"#utility.yul\":17523:17616   */\n      tag_194\n      jump\t// in\n    tag_379:\n        /* \"#utility.yul\":17641:17643   */\n      0x20\n        /* \"#utility.yul\":17636:17639   */\n      dup3\n        /* \"#utility.yul\":17632:17644   */\n      add\n        /* \"#utility.yul\":17625:17644   */\n      swap1\n      pop\n        /* \"#utility.yul\":17284:17650   */\n      swap2\n      swap1\n      pop\n      jump\t// out\n        /* \"#utility.yul\":17656:18075   */\n    tag_137:\n        /* \"#utility.yul\":17822:17826   */\n      0x00\n        /* \"#utility.yul\":17860:17862   */\n      0x20\n        /* \"#utility.yul\":17849:17858   */\n      dup3\n        /* \"#utility.yul\":17845:17863   */\n      add\n        /* \"#utility.yul\":17837:17863   */\n      swap1\n      pop\n        /* \"#utility.yul\":17909:17918   */\n      dup2\n        /* \"#utility.yul\":17903:17907   */\n      dup2\n        /* \"#utility.yul\":17899:17919   */\n      sub\n        /* \"#utility.yul\":17895:17896   */\n      0x00\n        /* \"#utility.yul\":17884:17893   */\n      dup4\n        /* \"#utility.yul\":17880:17897   */\n      add\n        /* \"#utility.yul\":17873:17920   */\n      mstore\n        /* \"#utility.yul\":17937:18068   */\n      tag_381\n        /* \"#utility.yul\":18063:18067   */\n      dup2\n        /* \"#utility.yul\":17937:18068   */\n      tag_195\n      jump\t// in\n    tag_381:\n        /* \"#utility.yul\":17929:18068   */\n      swap1\n      pop\n        /* \"#utility.yul\":17656:18075   */\n      swap2\n      swap1\n      pop\n      jump\t// out\n\n    auxdata: 0xa264697066735822122083967a1c735672e6b1a9f608eea5b0913d11e71d8b326c0c558aa54352af323b64736f6c634300081e0033\n}\n",
				"bytecode": {
					"linkReferences": {},
					"object": "60806040525f6001556064600255662386f26fc100006003553480156022575f5ffd5b50335f5f6101000a81548173ffffffffffffffffffffffffffffffffffffffff021916908373ffffffffffffffffffffffffffffffffffffffff1602179055506117228061006f5f395ff3fe6080604052600436106100dc575f3560e01c8063a87430ba1161007e578063be74cf5a11610058578063be74cf5a14610260578063cc45969614610288578063dcda2d8c146102b2578063f7b2a7be146102da576100dc565b8063a87430ba146101da578063b5ecf91214610218578063bd097e2114610256576100dc565b80635ea4d29c116100ba5780635ea4d29c146101465780635fd8c710146101705780636f9fb98a146101865780638da5cb5b146101b0576100dc565b806315c2ba14146100e057806341a7726a146101085780634d3820eb14610130575b5f5ffd5b3480156100eb575f5ffd5b5061010660048036038101906101019190610dd5565b610304565b005b348015610113575f5ffd5b5061012e60048036038101906101299190610e5a565b61039c565b005b34801561013b575f5ffd5b506101446105b9565b005b348015610151575f5ffd5b5061015a61076c565b6040516101679190610e94565b60405180910390f35b34801561017b575f5ffd5b50610184610772565b005b348015610191575f5ffd5b5061019a610866565b6040516101a79190610e94565b60405180910390f35b3480156101bb575f5ffd5b506101c461086d565b6040516101d19190610ebc565b60405180910390f35b3480156101e5575f5ffd5b5061020060048036038101906101fb9190610e5a565b610891565b60405161020f93929190610eef565b60405180910390f35b348015610223575f5ffd5b5061023e60048036038101906102399190610dd5565b6108e2565b60405161024d93929190610f94565b60405180910390f35b61025e6109b9565b005b34801561026b575f5ffd5b50610286600480360381019061028191906110fc565b610a49565b005b348015610293575f5ffd5b5061029c610c0f565b6040516102a99190610e94565b60405180910390f35b3480156102bd575f5ffd5b506102d860048036038101906102d39190610dd5565b610c15565b005b3480156102e5575f5ffd5b506102ee610cad565b6040516102fb9190610e94565b60405180910390f35b5f5f9054906101000a900473ffffffffffffffffffffffffffffffffffffffff1673ffffffffffffffffffffffffffffffffffffffff163373ffffffffffffffffffffffffffffffffffffffff1614610392576040517f08c379a00000000000000000000000000000000000000000000000000000000081526004016103899061118d565b60405180910390fd5b8060038190555050565b60045f3373ffffffffffffffffffffffffffffffffffffffff1673ffffffffffffffffffffffffffffffffffffffff1681526020019081526020015f205f0160149054906101000a900460ff16610428576040517f08c379a000000000000000000000000000000000000000000000000000000000815260040161041f906111f5565b60405180910390fd5b60045f8273ffffffffffffffffffffffffffffffffffffffff1673ffffffffffffffffffffffffffffffffffffffff1681526020019081526020015f205f0160149054906101000a900460ff166104b4576040517f08c379a00000000000000000000000000000000000000000000000000000000081526004016104ab9061125d565b60405180910390fd5b60045f8273ffffffffffffffffffffffffffffffffffffffff1673ffffffffffffffffffffffffffffffffffffffff1681526020019081526020015f206001015f815480929190610504906112a8565b91905055508073ffffffffffffffffffffffffffffffffffffffff163373ffffffffffffffffffffffffffffffffffffffff167f5af76814d21ef4a656d75bdbdb9cc3efa85af5efca9dbca0397824217d9344b760405160405180910390a360025460045f8373ffffffffffffffffffffffffffffffffffffffff1673ffffffffffffffffffffffffffffffffffffffff1681526020019081526020015f2060010154036105b6576105b581610cb3565b5b50565b60045f3373ffffffffffffffffffffffffffffffffffffffff1673ffffffffffffffffffffffffffffffffffffffff1681526020019081526020015f205f0160149054906101000a900460ff1615610646576040517f08c379a000000000000000000000000000000000000000000000000000000000815260040161063d90611339565b60405180910390fd5b60405180606001604052803373ffffffffffffffffffffffffffffffffffffffff1681526020016001151581526020015f81525060045f3373ffffffffffffffffffffffffffffffffffffffff1673ffffffffffffffffffffffffffffffffffffffff1681526020019081526020015f205f820151815f015f6101000a81548173ffffffffffffffffffffffffffffffffffffffff021916908373ffffffffffffffffffffffffffffffffffffffff1602179055506020820151815f0160146101000a81548160ff021916908315150217905550604082015181600101559050503373ffffffffffffffffffffffffffffffffffffffff167f54db7a5cb4735e1aac1f53db512d3390390bb6637bd30ad4bf9fc98667d9b9b960405160405180910390a2565b60025481565b5f5f9054906101000a900473ffffffffffffffffffffffffffffffffffffffff1673ffffffffffffffffffffffffffffffffffffffff163373ffffffffffffffffffffffffffffffffffffffff1614610800576040517f08c379a00000000000000000000000000000000000000000000000000000000081526004016107f79061118d565b60405180910390fd5b5f5f9054906101000a900473ffffffffffffffffffffffffffffffffffffffff1673ffffffffffffffffffffffffffffffffffffffff166108fc4790811502906040515f60405180830381858888f19350505050158015610863573d5f5f3e3d5ffd5b50565b5f47905090565b5f5f9054906101000a900473ffffffffffffffffffffffffffffffffffffffff1681565b6004602052805f5260405f205f91509050805f015f9054906101000a900473ffffffffffffffffffffffffffffffffffffffff1690805f0160149054906101000a900460ff16908060010154905083565b6005602052805f5260405f205f91509050805f015f9054906101000a900473ffffffffffffffffffffffffffffffffffffffff169080600101805461092690611384565b80601f016020809104026020016040519081016040528092919081815260200182805461095290611384565b801561099d5780601f106109745761010080835404028352916020019161099d565b820191905f5260205f20905b81548152906001019060200180831161098057829003601f168201915b505050505090806002015f9054906101000a900460ff16905083565b5f5f9054906101000a900473ffffffffffffffffffffffffffffffffffffffff1673ffffffffffffffffffffffffffffffffffffffff163373ffffffffffffffffffffffffffffffffffffffff1614610a47576040517f08c379a0000000000000000000000000000000000000000000000000000000008152600401610a3e9061118d565b60405180910390fd5b565b60045f3373ffffffffffffffffffffffffffffffffffffffff1673ffffffffffffffffffffffffffffffffffffffff1681526020019081526020015f205f0160149054906101000a900460ff16610ad5576040517f08c379a0000000000000000000000000000000000000000000000000000000008152600401610acc906111f5565b60405180910390fd5b60405180606001604052803373ffffffffffffffffffffffffffffffffffffffff1681526020018281526020016001151581525060055f60015481526020019081526020015f205f820151815f015f6101000a81548173ffffffffffffffffffffffffffffffffffffffff021916908373ffffffffffffffffffffffffffffffffffffffff1602179055506020820151816001019081610b759190611554565b506040820151816002015f6101000a81548160ff02191690831515021790555090505060015f815480929190610baa906112a8565b91905055503373ffffffffffffffffffffffffffffffffffffffff167f9b254a01196130d4769a7e8e9a24ddff300fd957e55e026cbc14978eef3b62b860018054610bf59190611623565b83604051610c04929190611656565b60405180910390a250565b60015481565b5f5f9054906101000a900473ffffffffffffffffffffffffffffffffffffffff1673ffffffffffffffffffffffffffffffffffffffff163373ffffffffffffffffffffffffffffffffffffffff1614610ca3576040517f08c379a0000000000000000000000000000000000000000000000000000000008152600401610c9a9061118d565b60405180910390fd5b8060028190555050565b60035481565b600354471015610cf8576040517f08c379a0000000000000000000000000000000000000000000000000000000008152600401610cef906116ce565b60405180910390fd5b8073ffffffffffffffffffffffffffffffffffffffff166108fc60035490811502906040515f60405180830381858888f19350505050158015610d3d573d5f5f3e3d5ffd5b508073ffffffffffffffffffffffffffffffffffffffff167fe34918ff1c7084970068b53fd71ad6d8b04e9f15d3886cbf006443e6cdc52ea6600354604051610d869190610e94565b60405180910390a250565b5f604051905090565b5f5ffd5b5f5ffd5b5f819050919050565b610db481610da2565b8114610dbe575f5ffd5b50565b5f81359050610dcf81610dab565b92915050565b5f60208284031215610dea57610de9610d9a565b5b5f610df784828501610dc1565b91505092915050565b5f73ffffffffffffffffffffffffffffffffffffffff82169050919050565b5f610e2982610e00565b9050919050565b610e3981610e1f565b8114610e43575f5ffd5b50565b5f81359050610e5481610e30565b92915050565b5f60208284031215610e6f57610e6e610d9a565b5b5f610e7c84828501610e46565b91505092915050565b610e8e81610da2565b82525050565b5f602082019050610ea75f830184610e85565b92915050565b610eb681610e1f565b82525050565b5f602082019050610ecf5f830184610ead565b92915050565b5f8115159050919050565b610ee981610ed5565b82525050565b5f606082019050610f025f830186610ead565b610f0f6020830185610ee0565b610f1c6040830184610e85565b949350505050565b5f81519050919050565b5f82825260208201905092915050565b8281835e5f83830152505050565b5f601f19601f8301169050919050565b5f610f6682610f24565b610f708185610f2e565b9350610f80818560208601610f3e565b610f8981610f4c565b840191505092915050565b5f606082019050610fa75f830186610ead565b8181036020830152610fb98185610f5c565b9050610fc86040830184610ee0565b949350505050565b5f5ffd5b5f5ffd5b7f4e487b71000000000000000000000000000000000000000000000000000000005f52604160045260245ffd5b61100e82610f4c565b810181811067ffffffffffffffff8211171561102d5761102c610fd8565b5b80604052505050565b5f61103f610d91565b905061104b8282611005565b919050565b5f67ffffffffffffffff82111561106a57611069610fd8565b5b61107382610f4c565b9050602081019050919050565b828183375f83830152505050565b5f6110a061109b84611050565b611036565b9050828152602081018484840111156110bc576110bb610fd4565b5b6110c7848285611080565b509392505050565b5f82601f8301126110e3576110e2610fd0565b5b81356110f384826020860161108e565b91505092915050565b5f6020828403121561111157611110610d9a565b5b5f82013567ffffffffffffffff81111561112e5761112d610d9e565b5b61113a848285016110cf565b91505092915050565b7f4f6e6c79206f776e65722063616e2065786563757465207468697300000000005f82015250565b5f611177601b83610f2e565b915061118282611143565b602082019050919050565b5f6020820190508181035f8301526111a48161116b565b9050919050565b7f55736572206e6f742072656769737465726564000000000000000000000000005f82015250565b5f6111df601383610f2e565b91506111ea826111ab565b602082019050919050565b5f6020820190508181035f83015261120c816111d3565b9050919050565b7f43726561746f72206e6f742072656769737465726564000000000000000000005f82015250565b5f611247601683610f2e565b915061125282611213565b602082019050919050565b5f6020820190508181035f8301526112748161123b565b9050919050565b7f4e487b71000000000000000000000000000000000000000000000000000000005f52601160045260245ffd5b5f6112b282610da2565b91507fffffffffffffffffffffffffffffffffffffffffffffffffffffffffffffffff82036112e4576112e361127b565b5b600182019050919050565b7f5573657220616c726561647920726567697374657265640000000000000000005f82015250565b5f611323601783610f2e565b915061132e826112ef565b602082019050919050565b5f6020820190508181035f83015261135081611317565b9050919050565b7f4e487b71000000000000000000000000000000000000000000000000000000005f52602260045260245ffd5b5f600282049050600182168061139b57607f821691505b6020821081036113ae576113ad611357565b5b50919050565b5f819050815f5260205f209050919050565b5f6020601f8301049050919050565b5f82821b905092915050565b5f600883026114107fffffffffffffffffffffffffffffffffffffffffffffffffffffffffffffffff826113d5565b61141a86836113d5565b95508019841693508086168417925050509392505050565b5f819050919050565b5f61145561145061144b84610da2565b611432565b610da2565b9050919050565b5f819050919050565b61146e8361143b565b61148261147a8261145c565b8484546113e1565b825550505050565b5f5f905090565b61149961148a565b6114a4818484611465565b505050565b5b818110156114c7576114bc5f82611491565b6001810190506114aa565b5050565b601f82111561150c576114dd816113b4565b6114e6846113c6565b810160208510156114f5578190505b611509611501856113c6565b8301826114a9565b50505b505050565b5f82821c905092915050565b5f61152c5f1984600802611511565b1980831691505092915050565b5f611544838361151d565b9150826002028217905092915050565b61155d82610f24565b67ffffffffffffffff81111561157657611575610fd8565b5b6115808254611384565b61158b8282856114cb565b5f60209050601f8311600181146115bc575f84156115aa578287015190505b6115b48582611539565b86555061161b565b601f1984166115ca866113b4565b5f5b828110156115f1578489015182556001820191506020850194506020810190506115cc565b8683101561160e578489015161160a601f89168261151d565b8355505b6001600288020188555050505b505050505050565b5f61162d82610da2565b915061163883610da2565b92508282039050818111156116505761164f61127b565b5b92915050565b5f6040820190506116695f830185610e85565b818103602083015261167b8184610f5c565b90509392505050565b7f496e73756666696369656e7420636f6e74726163742062616c616e63650000005f82015250565b5f6116b8601d83610f2e565b91506116c382611684565b602082019050919050565b5f6020820190508181035f8301526116e5816116ac565b905091905056fea264697066735822122083967a1c735672e6b1a9f608eea5b0913d11e71d8b326c0c558aa54352af323b64736f6c634300081e0033",
					"opcodes": "PUSH1 0x80 PUSH1 0x40 MSTORE PUSH0 PUSH1 0x1 SSTORE PUSH1 0x64 PUSH1 0x2 SSTORE PUSH7 0x2386F26FC10000 PUSH1 0x3 SSTORE CALLVALUE DUP1 ISZERO PUSH1 0x22 JUMPI PUSH0 PUSH0 REVERT JUMPDEST POP CALLER PUSH0 PUSH0 PUSH2 0x100 EXP DUP2 SLOAD DUP2 PUSH20 0xFFFFFFFFFFFFFFFFFFFFFFFFFFFFFFFFFFFFFFFF MUL NOT AND SWAP1 DUP4 PUSH20 0xFFFFFFFFFFFFFFFFFFFFFFFFFFFFFFFFFFFFFFFF AND MUL OR SWAP1 SSTORE POP PUSH2 0x1722 DUP1 PUSH2 0x6F PUSH0 CODECOPY PUSH0 RETURN INVALID PUSH1 0x80 PUSH1 0x40 MSTORE PUSH1 0x4 CALLDATASIZE LT PUSH2 0xDC JUMPI PUSH0 CALLDATALOAD PUSH1 0xE0 SHR DUP1 PUSH4 0xA87430BA GT PUSH2 0x7E JUMPI DUP1 PUSH4 0xBE74CF5A GT PUSH2 0x58 JUMPI DUP1 PUSH4 0xBE74CF5A EQ PUSH2 0x260 JUMPI DUP1 PUSH4 0xCC459696 EQ PUSH2 0x288 JUMPI DUP1 PUSH4 0xDCDA2D8C EQ PUSH2 0x2B2 JUMPI DUP1 PUSH4 0xF7B2A7BE EQ PUSH2 0x2DA JUMPI PUSH2 0xDC JUMP JUMPDEST DUP1 PUSH4 0xA87430BA EQ PUSH2 0x1DA JUMPI DUP1 PUSH4 0xB5ECF912 EQ PUSH2 0x218 JUMPI DUP1 PUSH4 0xBD097E21 EQ PUSH2 0x256 JUMPI PUSH2 0xDC JUMP JUMPDEST DUP1 PUSH4 0x5EA4D29C GT PUSH2 0xBA JUMPI DUP1 PUSH4 0x5EA4D29C EQ PUSH2 0x146 JUMPI DUP1 PUSH4 0x5FD8C710 EQ PUSH2 0x170 JUMPI DUP1 PUSH4 0x6F9FB98A EQ PUSH2 0x186 JUMPI DUP1 PUSH4 0x8DA5CB5B EQ PUSH2 0x1B0 JUMPI PUSH2 0xDC JUMP JUMPDEST DUP1 PUSH4 0x15C2BA14 EQ PUSH2 0xE0 JUMPI DUP1 PUSH4 0x41A7726A EQ PUSH2 0x108 JUMPI DUP1 PUSH4 0x4D3820EB EQ PUSH2 0x130 JUMPI JUMPDEST PUSH0 PUSH0 REVERT JUMPDEST CALLVALUE DUP1 ISZERO PUSH2 0xEB JUMPI PUSH0 PUSH0 REVERT JUMPDEST POP PUSH2 0x106 PUSH1 0x4 DUP1 CALLDATASIZE SUB DUP2 ADD SWAP1 PUSH2 0x101 SWAP2 SWAP1 PUSH2 0xDD5 JUMP JUMPDEST PUSH2 0x304 JUMP JUMPDEST STOP JUMPDEST CALLVALUE DUP1 ISZERO PUSH2 0x113 JUMPI PUSH0 PUSH0 REVERT JUMPDEST POP PUSH2 0x12E PUSH1 0x4 DUP1 CALLDATASIZE SUB DUP2 ADD SWAP1 PUSH2 0x129 SWAP2 SWAP1 PUSH2 0xE5A JUMP JUMPDEST PUSH2 0x39C JUMP JUMPDEST STOP JUMPDEST CALLVALUE DUP1 ISZERO PUSH2 0x13B JUMPI PUSH0 PUSH0 REVERT JUMPDEST POP PUSH2 0x144 PUSH2 0x5B9 JUMP JUMPDEST STOP JUMPDEST CALLVALUE DUP1 ISZERO PUSH2 0x151 JUMPI PUSH0 PUSH0 REVERT JUMPDEST POP PUSH2 0x15A PUSH2 0x76C JUMP JUMPDEST PUSH1 0x40 MLOAD PUSH2 0x167 SWAP2 SWAP1 PUSH2 0xE94 JUMP JUMPDEST PUSH1 0x40 MLOAD DUP1 SWAP2 SUB SWAP1 RETURN JUMPDEST CALLVALUE DUP1 ISZERO PUSH2 0x17B JUMPI PUSH0 PUSH0 REVERT JUMPDEST POP PUSH2 0x184 PUSH2 0x772 JUMP JUMPDEST STOP JUMPDEST CALLVALUE DUP1 ISZERO PUSH2 0x191 JUMPI PUSH0 PUSH0 REVERT JUMPDEST POP PUSH2 0x19A PUSH2 0x866 JUMP JUMPDEST PUSH1 0x40 MLOAD PUSH2 0x1A7 SWAP2 SWAP1 PUSH2 0xE94 JUMP JUMPDEST PUSH1 0x40 MLOAD DUP1 SWAP2 SUB SWAP1 RETURN JUMPDEST CALLVALUE DUP1 ISZERO PUSH2 0x1BB JUMPI PUSH0 PUSH0 REVERT JUMPDEST POP PUSH2 0x1C4 PUSH2 0x86D JUMP JUMPDEST PUSH1 0x40 MLOAD PUSH2 0x1D1 SWAP2 SWAP1 PUSH2 0xEBC JUMP JUMPDEST PUSH1 0x40 MLOAD DUP1 SWAP2 SUB SWAP1 RETURN JUMPDEST CALLVALUE DUP1 ISZERO PUSH2 0x1E5 JUMPI PUSH0 PUSH0 REVERT JUMPDEST POP PUSH2 0x200 PUSH1 0x4 DUP1 CALLDATASIZE SUB DUP2 ADD SWAP1 PUSH2 0x1FB SWAP2 SWAP1 PUSH2 0xE5A JUMP JUMPDEST PUSH2 0x891 JUMP JUMPDEST PUSH1 0x40 MLOAD PUSH2 0x20F SWAP4 SWAP3 SWAP2 SWAP1 PUSH2 0xEEF JUMP JUMPDEST PUSH1 0x40 MLOAD DUP1 SWAP2 SUB SWAP1 RETURN JUMPDEST CALLVALUE DUP1 ISZERO PUSH2 0x223 JUMPI PUSH0 PUSH0 REVERT JUMPDEST POP PUSH2 0x23E PUSH1 0x4 DUP1 CALLDATASIZE SUB DUP2 ADD SWAP1 PUSH2 0x239 SWAP2 SWAP1 PUSH2 0xDD5 JUMP JUMPDEST PUSH2 0x8E2 JUMP JUMPDEST PUSH1 0x40 MLOAD PUSH2 0x24D SWAP4 SWAP3 SWAP2 SWAP1 PUSH2 0xF94 JUMP JUMPDEST PUSH1 0x40 MLOAD DUP1 SWAP2 SUB SWAP1 RETURN JUMPDEST PUSH2 0x25E PUSH2 0x9B9 JUMP JUMPDEST STOP JUMPDEST CALLVALUE DUP1 ISZERO PUSH2 0x26B JUMPI PUSH0 PUSH0 REVERT JUMPDEST POP PUSH2 0x286 PUSH1 0x4 DUP1 CALLDATASIZE SUB DUP2 ADD SWAP1 PUSH2 0x281 SWAP2 SWAP1 PUSH2 0x10FC JUMP JUMPDEST PUSH2 0xA49 JUMP JUMPDEST STOP JUMPDEST CALLVALUE DUP1 ISZERO PUSH2 0x293 JUMPI PUSH0 PUSH0 REVERT JUMPDEST POP PUSH2 0x29C PUSH2 0xC0F JUMP JUMPDEST PUSH1 0x40 MLOAD PUSH2 0x2A9 SWAP2 SWAP1 PUSH2 0xE94 JUMP JUMPDEST PUSH1 0x40 MLOAD DUP1 SWAP2 SUB SWAP1 RETURN JUMPDEST CALLVALUE DUP1 ISZERO PUSH2 0x2BD JUMPI PUSH0 PUSH0 REVERT JUMPDEST POP PUSH2 0x2D8 PUSH1 0x4 DUP1 CALLDATASIZE SUB DUP2 ADD SWAP1 PUSH2 0x2D3 SWAP2 SWAP1 PUSH2 0xDD5 JUMP JUMPDEST PUSH2 0xC15 JUMP JUMPDEST STOP JUMPDEST CALLVALUE DUP1 ISZERO PUSH2 0x2E5 JUMPI PUSH0 PUSH0 REVERT JUMPDEST POP PUSH2 0x2EE PUSH2 0xCAD JUMP JUMPDEST PUSH1 0x40 MLOAD PUSH2 0x2FB SWAP2 SWAP1 PUSH2 0xE94 JUMP JUMPDEST PUSH1 0x40 MLOAD DUP1 SWAP2 SUB SWAP1 RETURN JUMPDEST PUSH0 PUSH0 SWAP1 SLOAD SWAP1 PUSH2 0x100 EXP SWAP1 DIV PUSH20 0xFFFFFFFFFFFFFFFFFFFFFFFFFFFFFFFFFFFFFFFF AND PUSH20 0xFFFFFFFFFFFFFFFFFFFFFFFFFFFFFFFFFFFFFFFF AND CALLER PUSH20 0xFFFFFFFFFFFFFFFFFFFFFFFFFFFFFFFFFFFFFFFF AND EQ PUSH2 0x392 JUMPI PUSH1 0x40 MLOAD PUSH32 0x8C379A000000000000000000000000000000000000000000000000000000000 DUP2 MSTORE PUSH1 0x4 ADD PUSH2 0x389 SWAP1 PUSH2 0x118D JUMP JUMPDEST PUSH1 0x40 MLOAD DUP1 SWAP2 SUB SWAP1 REVERT JUMPDEST DUP1 PUSH1 0x3 DUP2 SWAP1 SSTORE POP POP JUMP JUMPDEST PUSH1 0x4 PUSH0 CALLER PUSH20 0xFFFFFFFFFFFFFFFFFFFFFFFFFFFFFFFFFFFFFFFF AND PUSH20 0xFFFFFFFFFFFFFFFFFFFFFFFFFFFFFFFFFFFFFFFF AND DUP2 MSTORE PUSH1 0x20 ADD SWAP1 DUP2 MSTORE PUSH1 0x20 ADD PUSH0 KECCAK256 PUSH0 ADD PUSH1 0x14 SWAP1 SLOAD SWAP1 PUSH2 0x100 EXP SWAP1 DIV PUSH1 0xFF AND PUSH2 0x428 JUMPI PUSH1 0x40 MLOAD PUSH32 0x8C379A000000000000000000000000000000000000000000000000000000000 DUP2 MSTORE PUSH1 0x4 ADD PUSH2 0x41F SWAP1 PUSH2 0x11F5 JUMP JUMPDEST PUSH1 0x40 MLOAD DUP1 SWAP2 SUB SWAP1 REVERT JUMPDEST PUSH1 0x4 PUSH0 DUP3 PUSH20 0xFFFFFFFFFFFFFFFFFFFFFFFFFFFFFFFFFFFFFFFF AND PUSH20 0xFFFFFFFFFFFFFFFFFFFFFFFFFFFFFFFFFFFFFFFF AND DUP2 MSTORE PUSH1 0x20 ADD SWAP1 DUP2 MSTORE PUSH1 0x20 ADD PUSH0 KECCAK256 PUSH0 ADD PUSH1 0x14 SWAP1 SLOAD SWAP1 PUSH2 0x100 EXP SWAP1 DIV PUSH1 0xFF AND PUSH2 0x4B4 JUMPI PUSH1 0x40 MLOAD PUSH32 0x8C379A000000000000000000000000000000000000000000000000000000000 DUP2 MSTORE PUSH1 0x4 ADD PUSH2 0x4AB SWAP1 PUSH2 0x125D JUMP JUMPDEST PUSH1 0x40 MLOAD DUP1 SWAP2 SUB SWAP1 REVERT JUMPDEST PUSH1 0x4 PUSH0 DUP3 PUSH20 0xFFFFFFFFFFFFFFFFFFFFFFFFFFFFFFFFFFFFFFFF AND PUSH20 0xFFFFFFFFFFFFFFFFFFFFFFFFFFFFFFFFFFFFFFFF AND DUP2 MSTORE PUSH1 0x20 ADD SWAP1 DUP2 MSTORE PUSH1 0x20 ADD PUSH0 KECCAK256 PUSH1 0x1 ADD PUSH0 DUP2 SLOAD DUP1 SWAP3 SWAP2 SWAP1 PUSH2 0x504 SWAP1 PUSH2 0x12A8 JUMP JUMPDEST SWAP2 SWAP1 POP SSTORE POP DUP1 PUSH20 0xFFFFFFFFFFFFFFFFFFFFFFFFFFFFFFFFFFFFFFFF AND CALLER PUSH20 0xFFFFFFFFFFFFFFFFFFFFFFFFFFFFFFFFFFFFFFFF AND PUSH32 0x5AF76814D21EF4A656D75BDBDB9CC3EFA85AF5EFCA9DBCA0397824217D9344B7 PUSH1 0x40 MLOAD PUSH1 0x40 MLOAD DUP1 SWAP2 SUB SWAP1 LOG3 PUSH1 0x2 SLOAD PUSH1 0x4 PUSH0 DUP4 PUSH20 0xFFFFFFFFFFFFFFFFFFFFFFFFFFFFFFFFFFFFFFFF AND PUSH20 0xFFFFFFFFFFFFFFFFFFFFFFFFFFFFFFFFFFFFFFFF AND DUP2 MSTORE PUSH1 0x20 ADD SWAP1 DUP2 MSTORE PUSH1 0x20 ADD PUSH0 KECCAK256 PUSH1 0x1 ADD SLOAD SUB PUSH2 0x5B6 JUMPI PUSH2 0x5B5 DUP2 PUSH2 0xCB3 JUMP JUMPDEST JUMPDEST POP JUMP JUMPDEST PUSH1 0x4 PUSH0 CALLER PUSH20 0xFFFFFFFFFFFFFFFFFFFFFFFFFFFFFFFFFFFFFFFF AND PUSH20 0xFFFFFFFFFFFFFFFFFFFFFFFFFFFFFFFFFFFFFFFF AND DUP2 MSTORE PUSH1 0x20 ADD SWAP1 DUP2 MSTORE PUSH1 0x20 ADD PUSH0 KECCAK256 PUSH0 ADD PUSH1 0x14 SWAP1 SLOAD SWAP1 PUSH2 0x100 EXP SWAP1 DIV PUSH1 0xFF AND ISZERO PUSH2 0x646 JUMPI PUSH1 0x40 MLOAD PUSH32 0x8C379A000000000000000000000000000000000000000000000000000000000 DUP2 MSTORE PUSH1 0x4 ADD PUSH2 0x63D SWAP1 PUSH2 0x1339 JUMP JUMPDEST PUSH1 0x40 MLOAD DUP1 SWAP2 SUB SWAP1 REVERT JUMPDEST PUSH1 0x40 MLOAD DUP1 PUSH1 0x60 ADD PUSH1 0x40 MSTORE DUP1 CALLER PUSH20 0xFFFFFFFFFFFFFFFFFFFFFFFFFFFFFFFFFFFFFFFF AND DUP2 MSTORE PUSH1 0x20 ADD PUSH1 0x1 ISZERO ISZERO DUP2 MSTORE PUSH1 0x20 ADD PUSH0 DUP2 MSTORE POP PUSH1 0x4 PUSH0 CALLER PUSH20 0xFFFFFFFFFFFFFFFFFFFFFFFFFFFFFFFFFFFFFFFF AND PUSH20 0xFFFFFFFFFFFFFFFFFFFFFFFFFFFFFFFFFFFFFFFF AND DUP2 MSTORE PUSH1 0x20 ADD SWAP1 DUP2 MSTORE PUSH1 0x20 ADD PUSH0 KECCAK256 PUSH0 DUP3 ADD MLOAD DUP2 PUSH0 ADD PUSH0 PUSH2 0x100 EXP DUP2 SLOAD DUP2 PUSH20 0xFFFFFFFFFFFFFFFFFFFFFFFFFFFFFFFFFFFFFFFF MUL NOT AND SWAP1 DUP4 PUSH20 0xFFFFFFFFFFFFFFFFFFFFFFFFFFFFFFFFFFFFFFFF AND MUL OR SWAP1 SSTORE POP PUSH1 0x20 DUP3 ADD MLOAD DUP2 PUSH0 ADD PUSH1 0x14 PUSH2 0x100 EXP DUP2 SLOAD DUP2 PUSH1 0xFF MUL NOT AND SWAP1 DUP4 ISZERO ISZERO MUL OR SWAP1 SSTORE POP PUSH1 0x40 DUP3 ADD MLOAD DUP2 PUSH1 0x1 ADD SSTORE SWAP1 POP POP CALLER PUSH20 0xFFFFFFFFFFFFFFFFFFFFFFFFFFFFFFFFFFFFFFFF AND PUSH32 0x54DB7A5CB4735E1AAC1F53DB512D3390390BB6637BD30AD4BF9FC98667D9B9B9 PUSH1 0x40 MLOAD PUSH1 0x40 MLOAD DUP1 SWAP2 SUB SWAP1 LOG2 JUMP JUMPDEST PUSH1 0x2 SLOAD DUP2 JUMP JUMPDEST PUSH0 PUSH0 SWAP1 SLOAD SWAP1 PUSH2 0x100 EXP SWAP1 DIV PUSH20 0xFFFFFFFFFFFFFFFFFFFFFFFFFFFFFFFFFFFFFFFF AND PUSH20 0xFFFFFFFFFFFFFFFFFFFFFFFFFFFFFFFFFFFFFFFF AND CALLER PUSH20 0xFFFFFFFFFFFFFFFFFFFFFFFFFFFFFFFFFFFFFFFF AND EQ PUSH2 0x800 JUMPI PUSH1 0x40 MLOAD PUSH32 0x8C379A000000000000000000000000000000000000000000000000000000000 DUP2 MSTORE PUSH1 0x4 ADD PUSH2 0x7F7 SWAP1 PUSH2 0x118D JUMP JUMPDEST PUSH1 0x40 MLOAD DUP1 SWAP2 SUB SWAP1 REVERT JUMPDEST PUSH0 PUSH0 SWAP1 SLOAD SWAP1 PUSH2 0x100 EXP SWAP1 DIV PUSH20 0xFFFFFFFFFFFFFFFFFFFFFFFFFFFFFFFFFFFFFFFF AND PUSH20 0xFFFFFFFFFFFFFFFFFFFFFFFFFFFFFFFFFFFFFFFF AND PUSH2 0x8FC SELFBALANCE SWAP1 DUP2 ISZERO MUL SWAP1 PUSH1 0x40 MLOAD PUSH0 PUSH1 0x40 MLOAD DUP1 DUP4 SUB DUP2 DUP6 DUP9 DUP9 CALL SWAP4 POP POP POP POP ISZERO DUP1 ISZERO PUSH2 0x863 JUMPI RETURNDATASIZE PUSH0 PUSH0 RETURNDATACOPY RETURNDATASIZE PUSH0 REVERT JUMPDEST POP JUMP JUMPDEST PUSH0 SELFBALANCE SWAP1 POP SWAP1 JUMP JUMPDEST PUSH0 PUSH0 SWAP1 SLOAD SWAP1 PUSH2 0x100 EXP SWAP1 DIV PUSH20 0xFFFFFFFFFFFFFFFFFFFFFFFFFFFFFFFFFFFFFFFF AND DUP2 JUMP JUMPDEST PUSH1 0x4 PUSH1 0x20 MSTORE DUP1 PUSH0 MSTORE PUSH1 0x40 PUSH0 KECCAK256 PUSH0 SWAP2 POP SWAP1 POP DUP1 PUSH0 ADD PUSH0 SWAP1 SLOAD SWAP1 PUSH2 0x100 EXP SWAP1 DIV PUSH20 0xFFFFFFFFFFFFFFFFFFFFFFFFFFFFFFFFFFFFFFFF AND SWAP1 DUP1 PUSH0 ADD PUSH1 0x14 SWAP1 SLOAD SWAP1 PUSH2 0x100 EXP SWAP1 DIV PUSH1 0xFF AND SWAP1 DUP1 PUSH1 0x1 ADD SLOAD SWAP1 POP DUP4 JUMP JUMPDEST PUSH1 0x5 PUSH1 0x20 MSTORE DUP1 PUSH0 MSTORE PUSH1 0x40 PUSH0 KECCAK256 PUSH0 SWAP2 POP SWAP1 POP DUP1 PUSH0 ADD PUSH0 SWAP1 SLOAD SWAP1 PUSH2 0x100 EXP SWAP1 DIV PUSH20 0xFFFFFFFFFFFFFFFFFFFFFFFFFFFFFFFFFFFFFFFF AND SWAP1 DUP1 PUSH1 0x1 ADD DUP1 SLOAD PUSH2 0x926 SWAP1 PUSH2 0x1384 JUMP JUMPDEST DUP1 PUSH1 0x1F ADD PUSH1 0x20 DUP1 SWAP2 DIV MUL PUSH1 0x20 ADD PUSH1 0x40 MLOAD SWAP1 DUP2 ADD PUSH1 0x40 MSTORE DUP1 SWAP3 SWAP2 SWAP1 DUP2 DUP2 MSTORE PUSH1 0x20 ADD DUP3 DUP1 SLOAD PUSH2 0x952 SWAP1 PUSH2 0x1384 JUMP JUMPDEST DUP1 ISZERO PUSH2 0x99D JUMPI DUP1 PUSH1 0x1F LT PUSH2 0x974 JUMPI PUSH2 0x100 DUP1 DUP4 SLOAD DIV MUL DUP4 MSTORE SWAP2 PUSH1 0x20 ADD SWAP2 PUSH2 0x99D JUMP JUMPDEST DUP3 ADD SWAP2 SWAP1 PUSH0 MSTORE PUSH1 0x20 PUSH0 KECCAK256 SWAP1 JUMPDEST DUP2 SLOAD DUP2 MSTORE SWAP1 PUSH1 0x1 ADD SWAP1 PUSH1 0x20 ADD DUP1 DUP4 GT PUSH2 0x980 JUMPI DUP3 SWAP1 SUB PUSH1 0x1F AND DUP3 ADD SWAP2 JUMPDEST POP POP POP POP POP SWAP1 DUP1 PUSH1 0x2 ADD PUSH0 SWAP1 SLOAD SWAP1 PUSH2 0x100 EXP SWAP1 DIV PUSH1 0xFF AND SWAP1 POP DUP4 JUMP JUMPDEST PUSH0 PUSH0 SWAP1 SLOAD SWAP1 PUSH2 0x100 EXP SWAP1 DIV PUSH20 0xFFFFFFFFFFFFFFFFFFFFFFFFFFFFFFFFFFFFFFFF AND PUSH20 0xFFFFFFFFFFFFFFFFFFFFFFFFFFFFFFFFFFFFFFFF AND CALLER PUSH20 0xFFFFFFFFFFFFFFFFFFFFFFFFFFFFFFFFFFFFFFFF AND EQ PUSH2 0xA47 JUMPI PUSH1 0x40 MLOAD PUSH32 0x8C379A000000000000000000000000000000000000000000000000000000000 DUP2 MSTORE PUSH1 0x4 ADD PUSH2 0xA3E SWAP1 PUSH2 0x118D JUMP JUMPDEST PUSH1 0x40 MLOAD DUP1 SWAP2 SUB SWAP1 REVERT JUMPDEST JUMP JUMPDEST PUSH1 0x4 PUSH0 CALLER PUSH20 0xFFFFFFFFFFFFFFFFFFFFFFFFFFFFFFFFFFFFFFFF AND PUSH20 0xFFFFFFFFFFFFFFFFFFFFFFFFFFFFFFFFFFFFFFFF AND DUP2 MSTORE PUSH1 0x20 ADD SWAP1 DUP2 MSTORE PUSH1 0x20 ADD PUSH0 KECCAK256 PUSH0 ADD PUSH1 0x14 SWAP1 SLOAD SWAP1 PUSH2 0x100 EXP SWAP1 DIV PUSH1 0xFF AND PUSH2 0xAD5 JUMPI PUSH1 0x40 MLOAD PUSH32 0x8C379A000000000000000000000000000000000000000000000000000000000 DUP2 MSTORE PUSH1 0x4 ADD PUSH2 0xACC SWAP1 PUSH2 0x11F5 JUMP JUMPDEST PUSH1 0x40 MLOAD DUP1 SWAP2 SUB SWAP1 REVERT JUMPDEST PUSH1 0x40 MLOAD DUP1 PUSH1 0x60 ADD PUSH1 0x40 MSTORE DUP1 CALLER PUSH20 0xFFFFFFFFFFFFFFFFFFFFFFFFFFFFFFFFFFFFFFFF AND DUP2 MSTORE PUSH1 0x20 ADD DUP3 DUP2 MSTORE PUSH1 0x20 ADD PUSH1 0x1 ISZERO ISZERO DUP2 MSTORE POP PUSH1 0x5 PUSH0 PUSH1 0x1 SLOAD DUP2 MSTORE PUSH1 0x20 ADD SWAP1 DUP2 MSTORE PUSH1 0x20 ADD PUSH0 KECCAK256 PUSH0 DUP3 ADD MLOAD DUP2 PUSH0 ADD PUSH0 PUSH2 0x100 EXP DUP2 SLOAD DUP2 PUSH20 0xFFFFFFFFFFFFFFFFFFFFFFFFFFFFFFFFFFFFFFFF MUL NOT AND SWAP1 DUP4 PUSH20 0xFFFFFFFFFFFFFFFFFFFFFFFFFFFFFFFFFFFFFFFF AND MUL OR SWAP1 SSTORE POP PUSH1 0x20 DUP3 ADD MLOAD DUP2 PUSH1 0x1 ADD SWAP1 DUP2 PUSH2 0xB75 SWAP2 SWAP1 PUSH2 0x1554 JUMP JUMPDEST POP PUSH1 0x40 DUP3 ADD MLOAD DUP2 PUSH1 0x2 ADD PUSH0 PUSH2 0x100 EXP DUP2 SLOAD DUP2 PUSH1 0xFF MUL NOT AND SWAP1 DUP4 ISZERO ISZERO MUL OR SWAP1 SSTORE POP SWAP1 POP POP PUSH1 0x1 PUSH0 DUP2 SLOAD DUP1 SWAP3 SWAP2 SWAP1 PUSH2 0xBAA SWAP1 PUSH2 0x12A8 JUMP JUMPDEST SWAP2 SWAP1 POP SSTORE POP CALLER PUSH20 0xFFFFFFFFFFFFFFFFFFFFFFFFFFFFFFFFFFFFFFFF AND PUSH32 0x9B254A01196130D4769A7E8E9A24DDFF300FD957E55E026CBC14978EEF3B62B8 PUSH1 0x1 DUP1 SLOAD PUSH2 0xBF5 SWAP2 SWAP1 PUSH2 0x1623 JUMP JUMPDEST DUP4 PUSH1 0x40 MLOAD PUSH2 0xC04 SWAP3 SWAP2 SWAP1 PUSH2 0x1656 JUMP JUMPDEST PUSH1 0x40 MLOAD DUP1 SWAP2 SUB SWAP1 LOG2 POP JUMP JUMPDEST PUSH1 0x1 SLOAD DUP2 JUMP JUMPDEST PUSH0 PUSH0 SWAP1 SLOAD SWAP1 PUSH2 0x100 EXP SWAP1 DIV PUSH20 0xFFFFFFFFFFFFFFFFFFFFFFFFFFFFFFFFFFFFFFFF AND PUSH20 0xFFFFFFFFFFFFFFFFFFFFFFFFFFFFFFFFFFFFFFFF AND CALLER PUSH20 0xFFFFFFFFFFFFFFFFFFFFFFFFFFFFFFFFFFFFFFFF AND EQ PUSH2 0xCA3 JUMPI PUSH1 0x40 MLOAD PUSH32 0x8C379A000000000000000000000000000000000000000000000000000000000 DUP2 MSTORE PUSH1 0x4 ADD PUSH2 0xC9A SWAP1 PUSH2 0x118D JUMP JUMPDEST PUSH1 0x40 MLOAD DUP1 SWAP2 SUB SWAP1 REVERT JUMPDEST DUP1 PUSH1 0x2 DUP2 SWAP1 SSTORE POP POP JUMP JUMPDEST PUSH1 0x3 SLOAD DUP2 JUMP JUMPDEST PUSH1 0x3 SLOAD SELFBALANCE LT ISZERO PUSH2 0xCF8 JUMPI PUSH1 0x40 MLOAD PUSH32 0x8C379A000000000000000000000000000000000000000000000000000000000 DUP2 MSTORE PUSH1 0x4 ADD PUSH2 0xCEF SWAP1 PUSH2 0x16CE JUMP JUMPDEST PUSH1 0x40 MLOAD DUP1 SWAP2 SUB SWAP1 REVERT JUMPDEST DUP1 PUSH20 0xFFFFFFFFFFFFFFFFFFFFFFFFFFFFFFFFFFFFFFFF AND PUSH2 0x8FC PUSH1 0x3 SLOAD SWAP1 DUP2 ISZERO MUL SWAP1 PUSH1 0x40 MLOAD PUSH0 PUSH1 0x40 MLOAD DUP1 DUP4 SUB DUP2 DUP6 DUP9 DUP9 CALL SWAP4 POP POP POP POP ISZERO DUP1 ISZERO PUSH2 0xD3D JUMPI RETURNDATASIZE PUSH0 PUSH0 RETURNDATACOPY RETURNDATASIZE PUSH0 REVERT JUMPDEST POP DUP1 PUSH20 0xFFFFFFFFFFFFFFFFFFFFFFFFFFFFFFFFFFFFFFFF AND PUSH32 0xE34918FF1C7084970068B53FD71AD6D8B04E9F15D3886CBF006443E6CDC52EA6 PUSH1 0x3 SLOAD PUSH1 0x40 MLOAD PUSH2 0xD86 SWAP2 SWAP1 PUSH2 0xE94 JUMP JUMPDEST PUSH1 0x40 MLOAD DUP1 SWAP2 SUB SWAP1 LOG2 POP JUMP JUMPDEST PUSH0 PUSH1 0x40 MLOAD SWAP1 POP SWAP1 JUMP JUMPDEST PUSH0 PUSH0 REVERT JUMPDEST PUSH0 PUSH0 REVERT JUMPDEST PUSH0 DUP2 SWAP1 POP SWAP2 SWAP1 POP JUMP JUMPDEST PUSH2 0xDB4 DUP2 PUSH2 0xDA2 JUMP JUMPDEST DUP2 EQ PUSH2 0xDBE JUMPI PUSH0 PUSH0 REVERT JUMPDEST POP JUMP JUMPDEST PUSH0 DUP2 CALLDATALOAD SWAP1 POP PUSH2 0xDCF DUP2 PUSH2 0xDAB JUMP JUMPDEST SWAP3 SWAP2 POP POP JUMP JUMPDEST PUSH0 PUSH1 0x20 DUP3 DUP5 SUB SLT ISZERO PUSH2 0xDEA JUMPI PUSH2 0xDE9 PUSH2 0xD9A JUMP JUMPDEST JUMPDEST PUSH0 PUSH2 0xDF7 DUP5 DUP3 DUP6 ADD PUSH2 0xDC1 JUMP JUMPDEST SWAP2 POP POP SWAP3 SWAP2 POP POP JUMP JUMPDEST PUSH0 PUSH20 0xFFFFFFFFFFFFFFFFFFFFFFFFFFFFFFFFFFFFFFFF DUP3 AND SWAP1 POP SWAP2 SWAP1 POP JUMP JUMPDEST PUSH0 PUSH2 0xE29 DUP3 PUSH2 0xE00 JUMP JUMPDEST SWAP1 POP SWAP2 SWAP1 POP JUMP JUMPDEST PUSH2 0xE39 DUP2 PUSH2 0xE1F JUMP JUMPDEST DUP2 EQ PUSH2 0xE43 JUMPI PUSH0 PUSH0 REVERT JUMPDEST POP JUMP JUMPDEST PUSH0 DUP2 CALLDATALOAD SWAP1 POP PUSH2 0xE54 DUP2 PUSH2 0xE30 JUMP JUMPDEST SWAP3 SWAP2 POP POP JUMP JUMPDEST PUSH0 PUSH1 0x20 DUP3 DUP5 SUB SLT ISZERO PUSH2 0xE6F JUMPI PUSH2 0xE6E PUSH2 0xD9A JUMP JUMPDEST JUMPDEST PUSH0 PUSH2 0xE7C DUP5 DUP3 DUP6 ADD PUSH2 0xE46 JUMP JUMPDEST SWAP2 POP POP SWAP3 SWAP2 POP POP JUMP JUMPDEST PUSH2 0xE8E DUP2 PUSH2 0xDA2 JUMP JUMPDEST DUP3 MSTORE POP POP JUMP JUMPDEST PUSH0 PUSH1 0x20 DUP3 ADD SWAP1 POP PUSH2 0xEA7 PUSH0 DUP4 ADD DUP5 PUSH2 0xE85 JUMP JUMPDEST SWAP3 SWAP2 POP POP JUMP JUMPDEST PUSH2 0xEB6 DUP2 PUSH2 0xE1F JUMP JUMPDEST DUP3 MSTORE POP POP JUMP JUMPDEST PUSH0 PUSH1 0x20 DUP3 ADD SWAP1 POP PUSH2 0xECF PUSH0 DUP4 ADD DUP5 PUSH2 0xEAD JUMP JUMPDEST SWAP3 SWAP2 POP POP JUMP JUMPDEST PUSH0 DUP2 ISZERO ISZERO SWAP1 POP SWAP2 SWAP1 POP JUMP JUMPDEST PUSH2 0xEE9 DUP2 PUSH2 0xED5 JUMP JUMPDEST DUP3 MSTORE POP POP JUMP JUMPDEST PUSH0 PUSH1 0x60 DUP3 ADD SWAP1 POP PUSH2 0xF02 PUSH0 DUP4 ADD DUP7 PUSH2 0xEAD JUMP JUMPDEST PUSH2 0xF0F PUSH1 0x20 DUP4 ADD DUP6 PUSH2 0xEE0 JUMP JUMPDEST PUSH2 0xF1C PUSH1 0x40 DUP4 ADD DUP5 PUSH2 0xE85 JUMP JUMPDEST SWAP5 SWAP4 POP POP POP POP JUMP JUMPDEST PUSH0 DUP2 MLOAD SWAP1 POP SWAP2 SWAP1 POP JUMP JUMPDEST PUSH0 DUP3 DUP3 MSTORE PUSH1 0x20 DUP3 ADD SWAP1 POP SWAP3 SWAP2 POP POP JUMP JUMPDEST DUP3 DUP2 DUP4 MCOPY PUSH0 DUP4 DUP4 ADD MSTORE POP POP POP JUMP JUMPDEST PUSH0 PUSH1 0x1F NOT PUSH1 0x1F DUP4 ADD AND SWAP1 POP SWAP2 SWAP1 POP JUMP JUMPDEST PUSH0 PUSH2 0xF66 DUP3 PUSH2 0xF24 JUMP JUMPDEST PUSH2 0xF70 DUP2 DUP6 PUSH2 0xF2E JUMP JUMPDEST SWAP4 POP PUSH2 0xF80 DUP2 DUP6 PUSH1 0x20 DUP7 ADD PUSH2 0xF3E JUMP JUMPDEST PUSH2 0xF89 DUP2 PUSH2 0xF4C JUMP JUMPDEST DUP5 ADD SWAP2 POP POP SWAP3 SWAP2 POP POP JUMP JUMPDEST PUSH0 PUSH1 0x60 DUP3 ADD SWAP1 POP PUSH2 0xFA7 PUSH0 DUP4 ADD DUP7 PUSH2 0xEAD JUMP JUMPDEST DUP2 DUP2 SUB PUSH1 0x20 DUP4 ADD MSTORE PUSH2 0xFB9 DUP2 DUP6 PUSH2 0xF5C JUMP JUMPDEST SWAP1 POP PUSH2 0xFC8 PUSH1 0x40 DUP4 ADD DUP5 PUSH2 0xEE0 JUMP JUMPDEST SWAP5 SWAP4 POP POP POP POP JUMP JUMPDEST PUSH0 PUSH0 REVERT JUMPDEST PUSH0 PUSH0 REVERT JUMPDEST PUSH32 0x4E487B7100000000000000000000000000000000000000000000000000000000 PUSH0 MSTORE PUSH1 0x41 PUSH1 0x4 MSTORE PUSH1 0x24 PUSH0 REVERT JUMPDEST PUSH2 0x100E DUP3 PUSH2 0xF4C JUMP JUMPDEST DUP2 ADD DUP2 DUP2 LT PUSH8 0xFFFFFFFFFFFFFFFF DUP3 GT OR ISZERO PUSH2 0x102D JUMPI PUSH2 0x102C PUSH2 0xFD8 JUMP JUMPDEST JUMPDEST DUP1 PUSH1 0x40 MSTORE POP POP POP JUMP JUMPDEST PUSH0 PUSH2 0x103F PUSH2 0xD91 JUMP JUMPDEST SWAP1 POP PUSH2 0x104B DUP3 DUP3 PUSH2 0x1005 JUMP JUMPDEST SWAP2 SWAP1 POP JUMP JUMPDEST PUSH0 PUSH8 0xFFFFFFFFFFFFFFFF DUP3 GT ISZERO PUSH2 0x106A JUMPI PUSH2 0x1069 PUSH2 0xFD8 JUMP JUMPDEST JUMPDEST PUSH2 0x1073 DUP3 PUSH2 0xF4C JUMP JUMPDEST SWAP1 POP PUSH1 0x20 DUP2 ADD SWAP1 POP SWAP2 SWAP1 POP JUMP JUMPDEST DUP3 DUP2 DUP4 CALLDATACOPY PUSH0 DUP4 DUP4 ADD MSTORE POP POP POP JUMP JUMPDEST PUSH0 PUSH2 0x10A0 PUSH2 0x109B DUP5 PUSH2 0x1050 JUMP JUMPDEST PUSH2 0x1036 JUMP JUMPDEST SWAP1 POP DUP3 DUP2 MSTORE PUSH1 0x20 DUP2 ADD DUP5 DUP5 DUP5 ADD GT ISZERO PUSH2 0x10BC JUMPI PUSH2 0x10BB PUSH2 0xFD4 JUMP JUMPDEST JUMPDEST PUSH2 0x10C7 DUP5 DUP3 DUP6 PUSH2 0x1080 JUMP JUMPDEST POP SWAP4 SWAP3 POP POP POP JUMP JUMPDEST PUSH0 DUP3 PUSH1 0x1F DUP4 ADD SLT PUSH2 0x10E3 JUMPI PUSH2 0x10E2 PUSH2 0xFD0 JUMP JUMPDEST JUMPDEST DUP2 CALLDATALOAD PUSH2 0x10F3 DUP5 DUP3 PUSH1 0x20 DUP7 ADD PUSH2 0x108E JUMP JUMPDEST SWAP2 POP POP SWAP3 SWAP2 POP POP JUMP JUMPDEST PUSH0 PUSH1 0x20 DUP3 DUP5 SUB SLT ISZERO PUSH2 0x1111 JUMPI PUSH2 0x1110 PUSH2 0xD9A JUMP JUMPDEST JUMPDEST PUSH0 DUP3 ADD CALLDATALOAD PUSH8 0xFFFFFFFFFFFFFFFF DUP2 GT ISZERO PUSH2 0x112E JUMPI PUSH2 0x112D PUSH2 0xD9E JUMP JUMPDEST JUMPDEST PUSH2 0x113A DUP5 DUP3 DUP6 ADD PUSH2 0x10CF JUMP JUMPDEST SWAP2 POP POP SWAP3 SWAP2 POP POP JUMP JUMPDEST PUSH32 0x4F6E6C79206F776E65722063616E206578656375746520746869730000000000 PUSH0 DUP3 ADD MSTORE POP JUMP JUMPDEST PUSH0 PUSH2 0x1177 PUSH1 0x1B DUP4 PUSH2 0xF2E JUMP JUMPDEST SWAP2 POP PUSH2 0x1182 DUP3 PUSH2 0x1143 JUMP JUMPDEST PUSH1 0x20 DUP3 ADD SWAP1 POP SWAP2 SWAP1 POP JUMP JUMPDEST PUSH0 PUSH1 0x20 DUP3 ADD SWAP1 POP DUP2 DUP2 SUB PUSH0 DUP4 ADD MSTORE PUSH2 0x11A4 DUP2 PUSH2 0x116B JUMP JUMPDEST SWAP1 POP SWAP2 SWAP1 POP JUMP JUMPDEST PUSH32 0x55736572206E6F74207265676973746572656400000000000000000000000000 PUSH0 DUP3 ADD MSTORE POP JUMP JUMPDEST PUSH0 PUSH2 0x11DF PUSH1 0x13 DUP4 PUSH2 0xF2E JUMP JUMPDEST SWAP2 POP PUSH2 0x11EA DUP3 PUSH2 0x11AB JUMP JUMPDEST PUSH1 0x20 DUP3 ADD SWAP1 POP SWAP2 SWAP1 POP JUMP JUMPDEST PUSH0 PUSH1 0x20 DUP3 ADD SWAP1 POP DUP2 DUP2 SUB PUSH0 DUP4 ADD MSTORE PUSH2 0x120C DUP2 PUSH2 0x11D3 JUMP JUMPDEST SWAP1 POP SWAP2 SWAP1 POP JUMP JUMPDEST PUSH32 0x43726561746F72206E6F74207265676973746572656400000000000000000000 PUSH0 DUP3 ADD MSTORE POP JUMP JUMPDEST PUSH0 PUSH2 0x1247 PUSH1 0x16 DUP4 PUSH2 0xF2E JUMP JUMPDEST SWAP2 POP PUSH2 0x1252 DUP3 PUSH2 0x1213 JUMP JUMPDEST PUSH1 0x20 DUP3 ADD SWAP1 POP SWAP2 SWAP1 POP JUMP JUMPDEST PUSH0 PUSH1 0x20 DUP3 ADD SWAP1 POP DUP2 DUP2 SUB PUSH0 DUP4 ADD MSTORE PUSH2 0x1274 DUP2 PUSH2 0x123B JUMP JUMPDEST SWAP1 POP SWAP2 SWAP1 POP JUMP JUMPDEST PUSH32 0x4E487B7100000000000000000000000000000000000000000000000000000000 PUSH0 MSTORE PUSH1 0x11 PUSH1 0x4 MSTORE PUSH1 0x24 PUSH0 REVERT JUMPDEST PUSH0 PUSH2 0x12B2 DUP3 PUSH2 0xDA2 JUMP JUMPDEST SWAP2 POP PUSH32 0xFFFFFFFFFFFFFFFFFFFFFFFFFFFFFFFFFFFFFFFFFFFFFFFFFFFFFFFFFFFFFFFF DUP3 SUB PUSH2 0x12E4 JUMPI PUSH2 0x12E3 PUSH2 0x127B JUMP JUMPDEST JUMPDEST PUSH1 0x1 DUP3 ADD SWAP1 POP SWAP2 SWAP1 POP JUMP JUMPDEST PUSH32 0x5573657220616C72656164792072656769737465726564000000000000000000 PUSH0 DUP3 ADD MSTORE POP JUMP JUMPDEST PUSH0 PUSH2 0x1323 PUSH1 0x17 DUP4 PUSH2 0xF2E JUMP JUMPDEST SWAP2 POP PUSH2 0x132E DUP3 PUSH2 0x12EF JUMP JUMPDEST PUSH1 0x20 DUP3 ADD SWAP1 POP SWAP2 SWAP1 POP JUMP JUMPDEST PUSH0 PUSH1 0x20 DUP3 ADD SWAP1 POP DUP2 DUP2 SUB PUSH0 DUP4 ADD MSTORE PUSH2 0x1350 DUP2 PUSH2 0x1317 JUMP JUMPDEST SWAP1 POP SWAP2 SWAP1 POP JUMP JUMPDEST PUSH32 0x4E487B7100000000000000000000000000000000000000000000000000000000 PUSH0 MSTORE PUSH1 0x22 PUSH1 0x4 MSTORE PUSH1 0x24 PUSH0 REVERT JUMPDEST PUSH0 PUSH1 0x2 DUP3 DIV SWAP1 POP PUSH1 0x1 DUP3 AND DUP1 PUSH2 0x139B JUMPI PUSH1 0x7F DUP3 AND SWAP2 POP JUMPDEST PUSH1 0x20 DUP3 LT DUP2 SUB PUSH2 0x13AE JUMPI PUSH2 0x13AD PUSH2 0x1357 JUMP JUMPDEST JUMPDEST POP SWAP2 SWAP1 POP JUMP JUMPDEST PUSH0 DUP2 SWAP1 POP DUP2 PUSH0 MSTORE PUSH1 0x20 PUSH0 KECCAK256 SWAP1 POP SWAP2 SWAP1 POP JUMP JUMPDEST PUSH0 PUSH1 0x20 PUSH1 0x1F DUP4 ADD DIV SWAP1 POP SWAP2 SWAP1 POP JUMP JUMPDEST PUSH0 DUP3 DUP3 SHL SWAP1 POP SWAP3 SWAP2 POP POP JUMP JUMPDEST PUSH0 PUSH1 0x8 DUP4 MUL PUSH2 0x1410 PUSH32 0xFFFFFFFFFFFFFFFFFFFFFFFFFFFFFFFFFFFFFFFFFFFFFFFFFFFFFFFFFFFFFFFF DUP3 PUSH2 0x13D5 JUMP JUMPDEST PUSH2 0x141A DUP7 DUP4 PUSH2 0x13D5 JUMP JUMPDEST SWAP6 POP DUP1 NOT DUP5 AND SWAP4 POP DUP1 DUP7 AND DUP5 OR SWAP3 POP POP POP SWAP4 SWAP3 POP POP POP JUMP JUMPDEST PUSH0 DUP2 SWAP1 POP SWAP2 SWAP1 POP JUMP JUMPDEST PUSH0 PUSH2 0x1455 PUSH2 0x1450 PUSH2 0x144B DUP5 PUSH2 0xDA2 JUMP JUMPDEST PUSH2 0x1432 JUMP JUMPDEST PUSH2 0xDA2 JUMP JUMPDEST SWAP1 POP SWAP2 SWAP1 POP JUMP JUMPDEST PUSH0 DUP2 SWAP1 POP SWAP2 SWAP1 POP JUMP JUMPDEST PUSH2 0x146E DUP4 PUSH2 0x143B JUMP JUMPDEST PUSH2 0x1482 PUSH2 0x147A DUP3 PUSH2 0x145C JUMP JUMPDEST DUP5 DUP5 SLOAD PUSH2 0x13E1 JUMP JUMPDEST DUP3 SSTORE POP POP POP POP JUMP JUMPDEST PUSH0 PUSH0 SWAP1 POP SWAP1 JUMP JUMPDEST PUSH2 0x1499 PUSH2 0x148A JUMP JUMPDEST PUSH2 0x14A4 DUP2 DUP5 DUP5 PUSH2 0x1465 JUMP JUMPDEST POP POP POP JUMP JUMPDEST JUMPDEST DUP2 DUP2 LT ISZERO PUSH2 0x14C7 JUMPI PUSH2 0x14BC PUSH0 DUP3 PUSH2 0x1491 JUMP JUMPDEST PUSH1 0x1 DUP2 ADD SWAP1 POP PUSH2 0x14AA JUMP JUMPDEST POP POP JUMP JUMPDEST PUSH1 0x1F DUP3 GT ISZERO PUSH2 0x150C JUMPI PUSH2 0x14DD DUP2 PUSH2 0x13B4 JUMP JUMPDEST PUSH2 0x14E6 DUP5 PUSH2 0x13C6 JUMP JUMPDEST DUP2 ADD PUSH1 0x20 DUP6 LT ISZERO PUSH2 0x14F5 JUMPI DUP2 SWAP1 POP JUMPDEST PUSH2 0x1509 PUSH2 0x1501 DUP6 PUSH2 0x13C6 JUMP JUMPDEST DUP4 ADD DUP3 PUSH2 0x14A9 JUMP JUMPDEST POP POP JUMPDEST POP POP POP JUMP JUMPDEST PUSH0 DUP3 DUP3 SHR SWAP1 POP SWAP3 SWAP2 POP POP JUMP JUMPDEST PUSH0 PUSH2 0x152C PUSH0 NOT DUP5 PUSH1 0x8 MUL PUSH2 0x1511 JUMP JUMPDEST NOT DUP1 DUP4 AND SWAP2 POP POP SWAP3 SWAP2 POP POP JUMP JUMPDEST PUSH0 PUSH2 0x1544 DUP4 DUP4 PUSH2 0x151D JUMP JUMPDEST SWAP2 POP DUP3 PUSH1 0x2 MUL DUP3 OR SWAP1 POP SWAP3 SWAP2 POP POP JUMP JUMPDEST PUSH2 0x155D DUP3 PUSH2 0xF24 JUMP JUMPDEST PUSH8 0xFFFFFFFFFFFFFFFF DUP2 GT ISZERO PUSH2 0x1576 JUMPI PUSH2 0x1575 PUSH2 0xFD8 JUMP JUMPDEST JUMPDEST PUSH2 0x1580 DUP3 SLOAD PUSH2 0x1384 JUMP JUMPDEST PUSH2 0x158B DUP3 DUP3 DUP6 PUSH2 0x14CB JUMP JUMPDEST PUSH0 PUSH1 0x20 SWAP1 POP PUSH1 0x1F DUP4 GT PUSH1 0x1 DUP2 EQ PUSH2 0x15BC JUMPI PUSH0 DUP5 ISZERO PUSH2 0x15AA JUMPI DUP3 DUP8 ADD MLOAD SWAP1 POP JUMPDEST PUSH2 0x15B4 DUP6 DUP3 PUSH2 0x1539 JUMP JUMPDEST DUP7 SSTORE POP PUSH2 0x161B JUMP JUMPDEST PUSH1 0x1F NOT DUP5 AND PUSH2 0x15CA DUP7 PUSH2 0x13B4 JUMP JUMPDEST PUSH0 JUMPDEST DUP3 DUP2 LT ISZERO PUSH2 0x15F1 JUMPI DUP5 DUP10 ADD MLOAD DUP3 SSTORE PUSH1 0x1 DUP3 ADD SWAP2 POP PUSH1 0x20 DUP6 ADD SWAP5 POP PUSH1 0x20 DUP2 ADD SWAP1 POP PUSH2 0x15CC JUMP JUMPDEST DUP7 DUP4 LT ISZERO PUSH2 0x160E JUMPI DUP5 DUP10 ADD MLOAD PUSH2 0x160A PUSH1 0x1F DUP10 AND DUP3 PUSH2 0x151D JUMP JUMPDEST DUP4 SSTORE POP JUMPDEST PUSH1 0x1 PUSH1 0x2 DUP9 MUL ADD DUP9 SSTORE POP POP POP JUMPDEST POP POP POP POP POP POP JUMP JUMPDEST PUSH0 PUSH2 0x162D DUP3 PUSH2 0xDA2 JUMP JUMPDEST SWAP2 POP PUSH2 0x1638 DUP4 PUSH2 0xDA2 JUMP JUMPDEST SWAP3 POP DUP3 DUP3 SUB SWAP1 POP DUP2 DUP2 GT ISZERO PUSH2 0x1650 JUMPI PUSH2 0x164F PUSH2 0x127B JUMP JUMPDEST JUMPDEST SWAP3 SWAP2 POP POP JUMP JUMPDEST PUSH0 PUSH1 0x40 DUP3 ADD SWAP1 POP PUSH2 0x1669 PUSH0 DUP4 ADD DUP6 PUSH2 0xE85 JUMP JUMPDEST DUP2 DUP2 SUB PUSH1 0x20 DUP4 ADD MSTORE PUSH2 0x167B DUP2 DUP5 PUSH2 0xF5C JUMP JUMPDEST SWAP1 POP SWAP4 SWAP3 POP POP POP JUMP JUMPDEST PUSH32 0x496E73756666696369656E7420636F6E74726163742062616C616E6365000000 PUSH0 DUP3 ADD MSTORE POP JUMP JUMPDEST PUSH0 PUSH2 0x16B8 PUSH1 0x1D DUP4 PUSH2 0xF2E JUMP JUMPDEST SWAP2 POP PUSH2 0x16C3 DUP3 PUSH2 0x1684 JUMP JUMPDEST PUSH1 0x20 DUP3 ADD SWAP1 POP SWAP2 SWAP1 POP JUMP JUMPDEST PUSH0 PUSH1 0x20 DUP3 ADD SWAP1 POP DUP2 DUP2 SUB PUSH0 DUP4 ADD MSTORE PUSH2 0x16E5 DUP2 PUSH2 0x16AC JUMP JUMPDEST SWAP1 POP SWAP2 SWAP1 POP JUMP INVALID LOG2 PUSH5 0x6970667358 0x22 SLT KECCAK256 DUP4 SWAP7 PUSH27 0x1C735672E6B1A9F608EEA5B0913D11E71D8B326C0C558AA54352AF ORIGIN EXTCODESIZE PUSH5 0x736F6C6343 STOP ADDMOD 0x1E STOP CALLER "
				},
				"gasEstimates": {
					"creation": {
						"codeDepositCost": "1184400",
						"executionCost": "74713",
						"totalCost": "1259113"
					},
					"external": {
						"contentCount()": "2469",
						"contents(uint256)": "infinite",
						"fundContract()": "2638",
						"getContractBalance()": "401",
						"owner()": "2596",
						"registerUser()": "57484",
						"rewardAmount()": "2513",
						"rewardThreshold()": "2448",
						"subscribe(address)": "infinite",
						"updateRewardAmount(uint256)": "24707",
						"updateRewardThreshold(uint256)": "24749",
						"uploadContent(string)": "infinite",
						"users(address)": "infinite",
						"withdrawBalance()": "infinite"
					},
					"internal": {
						"distributeReward(address)": "infinite"
					}
				},
				"methodIdentifiers": {
					"contentCount()": "cc459696",
					"contents(uint256)": "b5ecf912",
					"fundContract()": "bd097e21",
					"getContractBalance()": "6f9fb98a",
					"owner()": "8da5cb5b",
					"registerUser()": "4d3820eb",
					"rewardAmount()": "f7b2a7be",
					"rewardThreshold()": "5ea4d29c",
					"subscribe(address)": "41a7726a",
					"updateRewardAmount(uint256)": "15c2ba14",
					"updateRewardThreshold(uint256)": "dcda2d8c",
					"uploadContent(string)": "be74cf5a",
					"users(address)": "a87430ba",
					"withdrawBalance()": "5fd8c710"
				}
			},
			"storageLayout": {
				"storage": [
					{
						"astId": 17,
						"contract": "contracts/4_Ebbix.sol:Web3YouTube",
						"label": "owner",
						"offset": 0,
						"slot": "0",
						"type": "t_address"
					},
					{
						"astId": 20,
						"contract": "contracts/4_Ebbix.sol:Web3YouTube",
						"label": "contentCount",
						"offset": 0,
						"slot": "1",
						"type": "t_uint256"
					},
					{
						"astId": 23,
						"contract": "contracts/4_Ebbix.sol:Web3YouTube",
						"label": "rewardThreshold",
						"offset": 0,
						"slot": "2",
						"type": "t_uint256"
					},
					{
						"astId": 26,
						"contract": "contracts/4_Ebbix.sol:Web3YouTube",
						"label": "rewardAmount",
						"offset": 0,
						"slot": "3",
						"type": "t_uint256"
					},
					{
						"astId": 31,
						"contract": "contracts/4_Ebbix.sol:Web3YouTube",
						"label": "users",
						"offset": 0,
						"slot": "4",
						"type": "t_mapping(t_address,t_struct(User)8_storage)"
					},
					{
						"astId": 36,
						"contract": "contracts/4_Ebbix.sol:Web3YouTube",
						"label": "contents",
						"offset": 0,
						"slot": "5",
						"type": "t_mapping(t_uint256,t_struct(Content)15_storage)"
					}
				],
				"types": {
					"t_address": {
						"encoding": "inplace",
						"label": "address",
						"numberOfBytes": "20"
					},
					"t_bool": {
						"encoding": "inplace",
						"label": "bool",
						"numberOfBytes": "1"
					},
					"t_mapping(t_address,t_struct(User)8_storage)": {
						"encoding": "mapping",
						"key": "t_address",
						"label": "mapping(address => struct Web3YouTube.User)",
						"numberOfBytes": "32",
						"value": "t_struct(User)8_storage"
					},
					"t_mapping(t_uint256,t_struct(Content)15_storage)": {
						"encoding": "mapping",
						"key": "t_uint256",
						"label": "mapping(uint256 => struct Web3YouTube.Content)",
						"numberOfBytes": "32",
						"value": "t_struct(Content)15_storage"
					},
					"t_string_storage": {
						"encoding": "bytes",
						"label": "string",
						"numberOfBytes": "32"
					},
					"t_struct(Content)15_storage": {
						"encoding": "inplace",
						"label": "struct Web3YouTube.Content",
						"members": [
							{
								"astId": 10,
								"contract": "contracts/4_Ebbix.sol:Web3YouTube",
								"label": "creator",
								"offset": 0,
								"slot": "0",
								"type": "t_address"
							},
							{
								"astId": 12,
								"contract": "contracts/4_Ebbix.sol:Web3YouTube",
								"label": "metadata",
								"offset": 0,
								"slot": "1",
								"type": "t_string_storage"
							},
							{
								"astId": 14,
								"contract": "contracts/4_Ebbix.sol:Web3YouTube",
								"label": "uploaded",
								"offset": 0,
								"slot": "2",
								"type": "t_bool"
							}
						],
						"numberOfBytes": "96"
					},
					"t_struct(User)8_storage": {
						"encoding": "inplace",
						"label": "struct Web3YouTube.User",
						"members": [
							{
								"astId": 3,
								"contract": "contracts/4_Ebbix.sol:Web3YouTube",
								"label": "wallet",
								"offset": 0,
								"slot": "0",
								"type": "t_address"
							},
							{
								"astId": 5,
								"contract": "contracts/4_Ebbix.sol:Web3YouTube",
								"label": "registered",
								"offset": 20,
								"slot": "0",
								"type": "t_bool"
							},
							{
								"astId": 7,
								"contract": "contracts/4_Ebbix.sol:Web3YouTube",
								"label": "subscribers",
								"offset": 0,
								"slot": "1",
								"type": "t_uint256"
							}
						],
						"numberOfBytes": "64"
					},
					"t_uint256": {
						"encoding": "inplace",
						"label": "uint256",
						"numberOfBytes": "32"
					}
				}
			},
			"userdoc": {
				"kind": "user",
				"methods": {},
				"version": 1
			}
		}
	}
}